:020000040000fa
:20310000010878008000EB007000470001087800110020006C00470001087800720047006D
:20312000100078000000E00007003A008000EB006A00470001087800F00047006400470067
:2031400001087800060037006A004700EC0047001108780064004700F200470011087800C7
:2031600076004700100078000000E00007003A008000EB006800470001087800EE00470019
:2031800066004700010878000700370068004700EC0047001108780066004700F600470066
:2031A000110878000000000080168000620060000000E000FCFF3A0027003700801680001D
:2031C000620060000000E0000D003A006400470010007800104078000080FB00A016880052
:2031E00064004700900078006A004700100078008080400064004700010878001E0FE80062
:203200008116800000022000008060000000E00011003A00A016800000407800E60047004F
:2032200091007800804878006600470090007800680047001000780080804000660047006C
:20324000010878000E80E800100078008000E8000E80E8000108780074004700100078004D
:203260009E007800808F5000D4FF3900160037008116800000022000008060000000E00087
:2032800011003A00A016800000407800E600470091007800804878006600470090007800CA
:2032A00068004700100078008080400066004700010878000E80E800100078008000E80003
:2032C0000E80E800010878000E80E800900078007400470010007800808F5000E4FF3900BB
:2032E0001E0078000080FA00000006000400FA008E80E800804878000E80E8008E00780008
:2033000057FF07001E4078000080FA00000006000600FA00000F78000E80E800010878007C
:20332000640047000208780064004700100178000E80E800900078001E00780062FF0700B0
:203340000080FA00000006000000FA00801680000080FA00000006000200FA00000F7800DA
:2033600021028000200F2000008060001E007000200288000080FA00000006000000FA00C9
:20338000C3E8A80000000000000000000080FA00000006000000FA00D73E0700F33F07000B
:2033A000763F0700183B0700383907001437070088320700973D07001CFF0700EFFF07007A
:2033C00000022000E4FF07000080FA00000006000200FA00000F78009E007800618388005C
:2033E000FFFF37000000FA00E02C220080077800602E2200000188000080FA0000000600B8
:20340000A2230400000000004E1D040000000000901D040000000000D01D040000000000D2
:203420006E1D040000000000B01D040000000000F01D040000000000001A040000000000FD
:20344000D022040000000000001A040000000000001A040000000000001A0400000000001C
:20346000001A040000000000001A040000000000001A040000000000001A040000000000D4
:20348000001A040000000000FA210400000000009A21040000000000001A04000000000012
:2034A000001A040000000000001A040000000000001A040000000000141F0400000000007B
:2034C000001A040000000000001A040000000000001A040000000000001A04000000000074
:2034E000001A040000000000001A040000000000001A0400000000008A1E040000000000C6
:203500002A1E040000000000001A040000000000001A040000000000001A04000000000005
:20352000001A040000000000001A040000000000001A040000000000001A04000000000013
:20354000001A040000000000001A040000000000001A040000000000001A040000000000F3
:20356000001A040000000000001A040000000000001A040000000000B22204000000000019
:20358000F61E040000000000001A040000000000001A040000000000001A040000000000B9
:2035A000001A040000000000001A040000000000001A040000000000001A04000000000093
:2035C000001A040000000000001A040000000000001A040000000000001A04000000000073
:2035E000001A040000000000001A040000000000001A040000000000001A04000000000053
:20360000001A040000000000001A040000000000001A040000000000001A04000000000032
:20362000001A040000000000001A040000000000001A040000000000001A04000000000012
:20364000001A040000000000001A040000000000001A040000000000001A040000000000F2
:20366000001A040000000000001A040000000000001A040000000000001A040000000000D2
:20368000001A040000000000001A040000000000001A040000000000001A040000000000B2
:2036A000001A040000000000001A040000000000001A040000000000001A04000000000092
:2036C000001A040000000000001A040000000000001A040000000000001A04000000000072
:2036E000001A040000000000001A040000000000001A040000000000001A04000000000052
:20370000001A040000000000001A040000000000001A040000000000001A04000000000031
:20372000001A040000000000001A040000000000001A040000000000001A04000000000011
:20374000001A040000000000001A040000000000001A040000000000001A040000000000F1
:20376000001A040000000000001A040000000000001A040000000000001A040000000000D1
:20378000001A040000000000001A040000000000001A040000000000001A040000000000B1
:2037A000001A040000000000001A040000000000001A040000000000001A04000000000091
:2037C000001A040000000000001A040000000000001A040000000000001A04000000000071
:2037E000001A040000000000001A040000000000001A040000000000001A04000000000051
:20380000001A040000000000001A040000000000001A040000000000001A04000000000030
:20382000001A040000000000001A040000000000001A040000000000001A04000000000010
:20384000001A040000000000001A040000000000001A040000000000C82204000000000020
:203860000C1F040000000000001A040000000000001A040000000000001A040000000000BF
:20388000EF3322000EFF26000E01880000000000000020000000E0000200320000012000C5
:2038A0002002880014000700A80307000000E00003003A002083290001002000020037004E
:2038C0000000200001002000810F7000010032000F000700000020000000E000020032002A
:2038E000000002000000000040990200000000000040DA000000FE00A0C822000000E00069
:2039000002003200002020009001880000000600A1028800800478000000EB001F003700AC
:20392000E284440054A0B4009905BA00E284440054A0B4009906BA00E284440054A0B400E0
:203940000006EB00476FDE00FD07B200AE018800636CE10003003A000AD801000000EB003A
:203960000E003700606CE10008003A00004DEB000A05E800020039003420EC000AF0A000CF
:203980008B05E900F9FF3E00040037006168E100010032000086EB000B00070019C7BA0043
:2039A0001905BA000E04E00003003A000A00E000DBFF3A0000000600FE07B200AE0288000D
:2039C0008A047800F5FF37000CD0A300E20F4D001C003B0089027800354DBA000A05E8006C
:2039E000020039003420EC000AF0A0008B05E9000F003200254DBA000A05E800020039009A
:203A00003420EC000AF0A0008B05E900080032000C00E0000600320015CDBA000A05E80062
:203A2000020039003420EC000AF0A0008B05E9008984E80054A0B4000B00E000E2FF3A0055
:203A4000000006009902BA00055D78008B05E900F7FF3200C82ADE00055D78008B05E9006D
:203A6000F3FF32000C00E000F1FF320019DDBA00EEFF3700AE8C040000000000CC8C0400A6
:203A800000000000B8880400000000001C89040000000000427F0400000000003600F80046
:203AA000809FBE00829FBE00849FBE00869FBE000000FA00C028A9000000EB0044FE0700C7
:203AC0000080FA004F03BE004F02BE004F01BE004F00BE003600F900004006003600F8008F
:203AE000809FBE00829FBE00849FBE00869FBE000000FA003BFE0700C048A900100020002B
:203B000033FE07000080FA004F03BE004F02BE004F01BE004F00BE003600F9000040060044
:203B20003600F800809FBE00829FBE00849FBE00869FBE000000FA00C068A90020002000CC
:203B400023FE07000080FA004F03BE004F02BE004F01BE004F00BE003600F9000040060014
:203B60003600F800809FBE00829FBE00849FBE00869FBE000000FA00C088A900300020005C
:203B800013FE07000080FA004F03BE004F02BE004F01BE004F00BE003600F90000400600E4
:203BA0003600F800809FBE00829FBE00849FBE00869FBE000000FA00C608A9007000200056
:203BC00003FE07000080FA004F03BE004F02BE004F01BE004F00BE003600F90000400600B4
:203BE0003600F800809FBE00829FBE00849FBE00869FBE000000FA00214680000010200006
:203C0000008060000000E00003003200C508A900C0002000EEFD07002046800070006000B1
:203C20000000E00003003200C488A900A0002000E7FD070020468000610060000000E00048
:203C400003003200C408A900B0002000E0FD0700FFFF37003600F800809FBE00829FBE00E7
:203C6000849FBE00869FBE000000FA00608280000000E000020032006082800000000100AD
:203C80004182800030828000808F500002003A002388A900180037000388A90010003700F6
:203CA00040828000904078008180FB00811388000000E8004082880041828000502022005B
:203CC000808F500002003A00C0132200408288004182800030828000808F500005003200FF
:203CE00030138000700060000000E000ECFF320001003700000000000080FA004F03BE0072
:203D00004F02BE004F01BE004F00BE003600F900004006003600F800809FBE00829FBE001A
:203D2000849FBE00869FBE000000FA00708280000000E000020032007082800000000100CC
:203D40000368A9001E0037001182800060138000004078008048780011828000D02C2200CB
:203D6000808F500009003200108280000000E80021828000810F5000040032001082800064
:203D80000000E800108288000D00370011828000D02C2200808F500007003A0021828000E9
:203DA00050202200808F50000300320050202200108288000200370010C0B3004AF0B70084
:203DC00030138000620060000000E000DEFF32000080FA004F03BE004F02BE004F01BE00C8
:203DE0004F00BE003600F90000400600801F78000000FA0020138000620060000000E000DB
:203E0000010032006422A9000648A9000080FA004F007800004006000000FA0017C8A90040
:203E20000080FA00004006003600F800809FBE00829FBE00849FBE00869FBE000000FA001A
:203E40000228A9002110800000082000008060000000E0000900320004E2A9000830EF0005
:203E60007080800064004000100078008000EB00010878000E30EF002701370040808000EE
:203E80008000EB00B200200003002000820F5000838F580014013E00000601000B003700DB
:203EA0004700370087003700B00037000B013700DE003700F100370008013700F3003700F5
:203EC000090137004200370060003700000021006400400010007800620060000000E000A2
:203EE0000C013A00000021000080E8001000780070808800000021000080E80010007800E1
:203F0000104078000AF0B700000021000080E800100078000080E8001000780060808800BF
:203F2000000021000080E80010007800E6004000000021000080E80001087800000021001F
:203F40000080E8009000780080322200808F500004003A0000002100213222000080E80082
:203F60000108780000002100E4004000910078000100A1006400400001087800000021008A
:203F80000080E800900078000000210010007800808F500006003A0000002100E400400024
:203FA000910078000110A00064004000010878000002A8002000200040808800D6003700E3
:203FC0000022A8002000200040808800D20037002110800000002800008060000000E000ED
:203FE0000A0032000000210066004000104078008040E800000021006600400001487800C6
:204000004000200039380700C3003700808080008000D100F00F200000806000A0108800C6
:204020008080800061006000004078000004E00003003200B000200040808800B600370069
:204040003000200040808800B30037002110800000002800008060000000E0000A00320009
:204060000000210066004000104078008040E8000000210066004000014878004000200021
:204080001A380700A40037000022A800808080004800DE00E6006000000F20000100700096
:2040A00080808800808080000000A0008080880010C0B30012F0B70020002000408088000C
:2040C0009500370012D0BF00E14F50000C00320060808000100078008080880060808000E5
:2040E0006400400010007800A0808800608080000080E8001040780016F0B7000100370067
:204100001270EF0081808000F00F2000808F500009003600808080004800DE00E600600004
:20412000000F200001007000A0108800A0002000408088007800370080808000A010880038
:204140008080800061006000004078000004E0000300320050002000408088006E003700F0
:2041600030002000408088006B0037002110800000002800008060000000E0000B0032002F
:204180000000210066004000104078008040E80000002100660040000148780005E2A900D0
:2041A00050002000D13707005B00370016D0BF008080FB008100E900CF08DE0081407800F6
:2041C0000040E90016F0B7000104E000100032006080800066004000608088000AD0BF00CB
:2041E0000040E9000AF0B7000AD0BF000004E00003003A0020002000BC3707004600370074
:204200000022A800200020004080880042003700A0808000904078008180FB00A1108800B6
:204220000000E800A08088003B0037002110800000002800008060000000E0000B003200A6
:204240000000210066004000104078008040E800000021006600400001487800400020003F
:20426000A237070005E2A9002B0037000062A800800020004080880027003700800020007C
:20428000408088000062A80023003700A0808000C110800081407800014878000000E8009F
:2042A000A080880016D0BF000040E90016F0B70016D0BF000004E0000400320000A2A900C1
:2042C00060002000408088000200370000A2A800753707000082A8000F0037002000200030
:2042E000823707000C0037000000210066004000104078008040E8000000210066004000BD
:204300000148780060002000783707000000000001003700000000000080FA004F03BE00E4
:204320004F02BE004F01BE004F00BE003600F900004006003600F800809FBE00829FBE00F4
:20434000849FBE00869FBE000000FA00F08180000000E00002003200F081800000000100A8
:20436000A181800090818000808F500002003A002188A900180037000188A9001000370055
:20438000A0818000904078008180FB00411288000000E800A0818800A1818000B013210046
:2043A000808F500002003A0020072100A0818800A181800090818000808F500005003200A8
:2043C000F0118000700060000000E000ECFF320001003700000000000080FA004F03BE00CD
:2043E0004F02BE004F01BE004F00BE003600F900004006003600F800809FBE00829FBE0034
:20440000849FBE00869FBE000000FA00008280000000E000020032000082800000000100C5
:204420000168A90044003700718180002012800000407800804878006AD0BF00E24F500059
:2044400023003A003E8EA8003ECEA900E1818000F0FF2000808F500006003E0070818000D1
:204460000000E80070818800E08180000000E800E0818800E1818000F0FF2000808F5000D9
:204480000B003E00E08180006101B800C0818000D1818000020140008381480080AF260061
:2044A00061062000800F5100818F590022003600B01321007081880010C0B30036F0B70017
:2044C0003C30EF0030C1B300743307001A00370071818000B0132200808F500009003200ED
:2044E000708180000000E80081818000810F500004003200708180000000E80070818800F9
:204500000D00370071818000B0132200808F500007003A0081818000B0132100808F50009B
:2045200003003200B0132100708188000200370010C0B30036F0B700F0118000620060000D
:204540000000E000B8FF32000080FA004F03BE004F02BE004F01BE004F00BE003600F900AF
:2045600000400600801F78000000FA00E0118000620060000000E000010032003C22A90097
:204580000628A9000080FA004F007800004006000000FA0017A8A9000080FA00004006009B
:2045A0003600F800809FBE00829FBE00849FBE00869FBE000000FA0052D0BF000040E8004A
:2045C00052F0B700210521009140780040C6B30080CF500034003A005270EF001ED0BF002E
:2045E0000004E000030032001ED0BF000040E8001EF0B700008180000000E00003003200F2
:20460000008180000000E80000818800108180000000E00003003200108180000000E80089
:2046200010818800208180000000E00003003200208180000000E8002081880030818000C8
:204640000000E0000A003200308180000000E8003081880031818000C0442000808F500037
:20466000030036002630EF0010C0B30028F0B7005FD0BF00E24F50000A003A0053D0BF00D5
:204680000040E80053F0B70053D0BF00E94F5000050036005370EF0010C0B3005FF0B70018
:2046A000010037005370EF005ED0BF00E14F50000F003A0054D0BF000040E80054F0B70054
:2046C00054D0BF00E14F500002003A0023CEA80007003700410521009140780080C2B300BF
:2046E00080CF500002003A005470EF0023CEA900808280000000E00002003200808280007A
:2047000000000100D0332200104078008040E800D033220001487800C033220011C0B30084
:20472000014878000028A9000080FA004F03BE004F02BE004F01BE004F00BE003600F90004
:20474000004006000040DA000000FE00000005000000000000000000805500000000000021
:2047600000AB0000000000008000000001000000005600000100000080AB0000010000008A
:204780000001000002000000805600000200000000AC00000200000080010000030000000C
:2047A000005700000300000080AC000003000000000200000400000080570000040000008F
:2047C00000AD0000040000008002000005000000005800000500000080AD00000500000012
:2047E0000003000006000000805800000600000000AE000006000000800300000700000094
:20480000005900000700000080AE0000070000000004000008000000805900000800000016
:2048200000AF00000800000010C700000800000020DF00000800000030F7000008000000AC
:20484000400F0000090000005027000009000000603F000009000000705700000900000008
:204860000061000009000000906A0000090000002074000009000000B07D000009000000F8
:204880004087000009000000D090000009000000609A000009000000F0A300000900000040
:2048A00080AD00000900000010B7000009000000A0C000000900000030CA00000900000086
:2048C000C0D300000900000050DD000009000000300100000A000000102500000A0000008C
:2048E000F04800000A000000D06C00000A000000B09000000A00000090B400000A00000098
:2049000070D800000A000000C0F900000A000000101B00000B000000603C00000B000000A5
:20492000B05D00000B000000007F00000B00000050A000000B000000A0C100000B0000006E
:20494000F0F500000B000000402A00000C000000905E00000C000000E09200000C00000079
:2049600030C700000C00000080FB00000C000000D02F00000D000000903200000D000000D2
:20498000503500000D000000103800000D000000D03A00000D000000903D00000D0000003F
:2049A000504000000D000000104300000D000000D04500000D000000904800000D000000F3
:2049C000504B00000D000000104E00000D000000D05000000D000000905300000D000000A7
:2049E000505600000D000000D06200000D000000506F00000D000000507E00000D0000001E
:204A0000508D00000D000000509C00000D00000050AB00000D00000050BA00000D00000094
:204A200050C900000D00000050D800000D00000050E700000D00000050F600000D00000084
:204A4000500500000E000000501400000E000000502300000E000000503200000E00000070
:204A6000504100000E000000505000000E000000505F00000E000000506E00000E00000060
:204A8000507D00000E000000508C00000E000000509B00000E00000050AA00000E00000050
:204AA00050B900000E00000050C800000E00000050D700000E00000050E600000E00000040
:204AC00050F500000E000000500400000F000000501300000F000000502200000F0000002D
:204AE000503100000F000000504000000F000000504F00000F000000505E00000F0000001C
:204B0000506D00000F000000507C00000F000000508B00000F000000509A00000F0000000B
:204B200050A900000F00000050B800000F00000050C700000F00000050D600000F000000FB
:204B400050E500000F00000050F400000F00000050030000100000005012000010000000E9
:204B600050210000100000005030000010000000503F000010000000504E000010000000D7
:204B8000505D000010000000506C000010000000507B0000100000005087000010000000CA
:204BA0005093000010000000509F00001000000050AB00001000000050B7000010000000E1
:204BC00050C300001000000050CF00001000000050DB00001000000050E700001000000001
:204BE00050F300001000000050FF000010000000500B00001100000050170000110000001F
:204C00005023000011000000502F000011000000503B00001100000050470000110000003C
:204C20005053000011000000505F000011000000506B00001100000050770000110000005C
:204C40005083000011000000508F000011000000509B00001100000050A70000110000007C
:204C600050B300001100000050BF00001100000050CB00001100000050D70000110000009C
:204C800050E300001100000050EF00001100000050FB0000110000005007000012000000BB
:204CA0005013000012000000501F000012000000502B0000120000005037000012000000D8
:204CC0005043000012000000504F000012000000505B0000120000005067000012000000F8
:204CE0005073000012000000507F000012000000508B000012000000509700001200000018
:204D000050A300001200000050AF00001200000050BB00001200000050C700001200000037
:204D200050D300001200000050DF00001200000050EB00001200000010F500001200000099
:204D4000D0FE00001200000090080000130000005012000013000000101C00001300000014
:204D6000D025000013000000902F0000130000005039000013000000104300001300000057
:204D8000D04C00001300000090560000130000005060000013000000106A0000130000009B
:204DA000D073000013000000907D00001300000050870000130000001091000013000000DF
:204DC000D09A00001300000090A400001300000050AE00001300000010B800001300000023
:204DE000D0C100001300000090CB00001300000050D500001300000010DF00001300000067
:204E0000D0E800001300000090F200001300000050FC0000130000001006000014000000A9
:204E2000D00F00001400000090190000140000005023000014000000502F000014000000A8
:204E4000503B00001400000050470000140000005053000014000000505F0000140000008E
:204E6000506B00001400000050770000140000005083000014000000508F000014000000AE
:204E8000509B00001400000050A700001400000050B300001400000050BF000014000000CE
:204EA00050CB00001400000050D700001400000050E300001400000050EF000014000000EE
:204EC00050FB00001400000050070000150000005013000015000000501F0000150000000B
:204EE000502B00001500000050370000150000005043000015000000504F0000150000002A
:204F0000505B00001500000050670000150000005073000015000000507F00001500000049
:204F2000508B000015000000509700001500000050A300001500000050EF00001500000029
:204F4000503B000016000000508700001600000050D3000016000000501F00001700000004
:204F6000506B00001700000050B70000170000005003000018000000504F0000180000001F
:204F8000509B00001800000050E70000180000005033000019000000507F0000190000003B
:204FA00050CB000019000000501700001A000000506300001A00000050AF00001A00000056
:204FC00050FB00001A000000504700001B000000509300001B00000050DF00001B00000072
:204FE000502B00001C000000507700001C00000050C300001C000000500F00001D0000008C
:20500000505B00001D000000205E00001D000000F06000001D000000C06300001D00000080
:20502000906600001D00000090C200001D000000901E00001E000000907A00001E000000FA
:2050400090D600001E000000903200001F000000908E00001F00000030AD00001F000000B2
:20506000D0CB00001F00000070EA00001F0000001009000020000000B027000020000000CD
:205080005046000020000000F064000020000000908300002000000030A2000020000000C1
:2050A000D0C000002000000070DF00002000000010FE000020000000B01C000021000000B6
:2050C000503B000021000000F05900002100000090780000210000003097000021000000A9
:2050E000D0B500002100000070D400002100000010F3000021000000B0110000220000009E
:205100005030000022000000F04E000022000000906D000022000000308C00002200000090
:20512000D0AA000022000000D0B2000022000000D0BA000022000000D0C2000022000000CF
:20514000D0E3000022000000D004000023000000D025000023000000D04600002300000032
:20516000D067000023000000D088000023000000A09800002300000070A8000023000000C4
:2051800070AD00002300000070B2000023000000F0BE00002300000070CB0000230000005B
:2051A00068F5000023000000601F0000240000005849000024000000507300002400000020
:2051C000489D00002400000040C700002400000010CC000024000000E0D0000024000000C7
:2051E000B0D500002400000080DA00002400000050DF00002400000020E40000240000000D
:20520000180E0000250000001038000025000000107A00002500000010BC00002500000036
:2052200010FE0000250000001040000026000000108200002600000010C400002600000013
:2052400010060000270000001048000027000000108A00002700000010CC000027000000CE
:20526000100E0000280000001050000028000000109200002800000010D40000280000008A
:2052800010160000290000001058000029000000088200002900000000AC000029000000A6
:2052A000000800002A000000006400002A00000000C000002A000000001C00002B000000FD
:2052C000007800002B00000000D400002B000000003000002C000000008C00002C00000018
:2052E00000E800002C000000004400002D00000000A000002D00000000FC00002D00000033
:20530000005800002E00000000B400002E000000001000002F000000006C00002F0000004B
:2053200000C800002F0000000024000030000000008000003000000000DC00003000000066
:205340000038000031000000009400003100000000F0000031000000004C00003200000080
:2053600000A80000320000000004000033000000006000003300000000BC0000330000009A
:205380000018000034000000007400003400000000D0000034000000002C000035000000B4
:2053A000008800003500000000E40000350000000040000036000000009C000036000000CF
:2053C00090B900003600000020D7000036000000B0F40000360000004012000037000000BE
:2053E000D02F000037000000604D000037000000F06A0000370000008088000037000000C3
:2054000010A6000037000000A0C300003700000030E1000037000000C0FE000037000000C8
:20542000501C000038000000E03900003800000070570000380000000075000038000000CB
:20544000909200003800000020B0000038000000B0CD00003800000040EB000038000000D2
:20546000D0080000390000006026000039000000F0430000390000008061000039000000D6
:20548000107F000039000000A09C00003900000030BA000039000000C0D7000039000000DC
:2054A00050F5000039000000E01200003A000000703000003A000000E03E00003A00000010
:2054C000166F00003A0000004C9F00003A00000082CF00003A000000B8FF00003A0000006C
:2054E000EE2F00003B000000246000003B0000005A9000003B00000090C000003B000000E5
:20550000C6F000003B000000FC2000003C000000325100003C000000688100003C0000005E
:205520009EB100003C000000D4E100003C000000A62000003D000000785F00003D000000D8
:205540004A9E00003D0000001CDD00003D000000EE1B00003E000000C05A00003E00000051
:20556000929900003E00000064D800003E000000361700003F000000085600003F0000001F
:20558000DA9400003F000000ACD300003F0000007E120000400000005051000040000000EF
:2055A000D6660000400000005C7C000040000000E29100004000000068A700004000000055
:2055C000EEBC00004000000074D2000040000000FAE700004000000080FD0000400000007D
:2055E00006130000410000008C28000041000000123E00004100000098530000410000009F
:205600001E69000041000000A47E0000410000002A94000041000000B0A9000041000000C6
:2056200036BF000041000000BCD400004100000042EA000041000000C8FF000041000000EE
:205640004E15000042000000D42A0000420000005A40000042000000E05500004200000012
:20566000666B000042000000EC800000420000007296000042000000F8AB0000420000003A
:205680007EC100004200000004D70000420000008AEC00004200000010020000430000005F
:2056A00096170000430000001C2D000043000000A242000043000000285800004300000084
:2056C000AE6D0000430000003483000043000000BA9800004300000040AE000043000000AC
:2056E000C6C30000430000004CD9000043000000D2EE0000430000005804000044000000D3
:20570000DE19000044000000642F000044000000EA44000044000000705A000044000000F7
:20572000F66F0000440000007C85000044000000029B00004400000088B00000440000001E
:205740000EC600004400000094DB0000440000001AF1000044000000A00600004500000044
:20576000261C000045000000AC310000450000003247000045000000B85C00004500000069
:205780003E72000045000000C4870000450000004A9D000045000000D0B200004500000091
:2057A00056C8000045000000DCDD00004500000062F3000045000000E808000046000000B8
:2057C0006E1E000046000000F4330000460000007A49000046000000005F000046000000DC
:2057E00086740000460000000C8A000046000000929F00004600000018B500004600000003
:205800009ECA00004600000024E0000046000000AAF5000046000000300B00004700000029
:20582000B6200000470000003C36000047000000C24B00004700000048610000470000004E
:20584000CE76000047000000548C000047000000DAA100004700000060B700004700000076
:20586000E6CC0000470000006CE2000047000000F2F7000047000000CC0300004800000053
:20588000A60F000048000000801B0000480000005A270000480000003433000048000000B0
:2058A0000E3F000048000000E84A000048000000C2560000480000009C6200004800000033
:2058C000766E000048000000507A0000480000002A860000480000000492000048000000B4
:2058E000DE9D000048000000FEAA0000480000005AE8000048000000B62500004900000047
:2059000012630000490000006EA0000049000000CADD000049000000261B00004A000000F7
:20592000825800004A000000DE9500004A0000003AD300004A000000961000004B0000003E
:20594000F24D00004B0000004E8B00004B000000AAC800004B000000060600004C00000084
:20596000EE0D00004C000000D61500004C000000BE1D00004C000000A62500004C0000006B
:205980008E2D00004C000000763500004C0000005E3D00004C000000464500004C0000004B
:2059A0002E4D00004C000000165500004C000000FE5C00004C000000E66400004C0000002D
:2059C000CE6C00004C000000B67400004C000000327A00004C000000AE7F00004C0000005A
:2059E0002A8500004C000000A68A00004C000000229000004C0000009E9500004C000000B3
:205A00001A9B00004C00000096A000004C00000012A600004C0000008EAB00004C0000007A
:205A20000AB100004C00000086B600004C00000002BC00004C0000007EC100004C00000042
:205A400066C900004C0000004ED100004C00000036D900004C0000001EE100004C000000BA
:205A600006E900004C000000EEF000004C000000D6F800004C000000BE0000004D0000009C
:205A8000A60800004D0000008E1000004D000000761800004D0000005E2000004D0000007A
:205AA000462800004D0000002E3000004D0000003E3400004D0000004E3800004D000000EE
:205AC0005E3C00004D0000006E4000004D0000007E4400004D0000008E4800004D000000B2
:205AE0009E4C00004D000000AE5000004D000000BE5400004D000000CE5800004D00000052
:205B0000DE5C00004D000000EE6000004D000000FE6400004D0000000E6900004D000000F0
:205B2000009500004D000000F2C000004D000000E4EC00004D000000D61800004E0000002B
:205B4000C84400004E000000BA7000004E000000AC9C00004E0000009EC800004E00000029
:205B600090F400004E000000822000004F000000744C00004F000000667800004F00000026
:205B800058A400004F0000004AD000004F00000022E100004F000000FAF100004F000000C5
:205BA000D202000050000000AA1300005000000082240000500000005A35000050000000DF
:205BC00032460000500000000A57000050000000E267000050000000BA7800005000000031
:205BE00092890000500000006A9A00005000000042AB0000500000001ABC00005000000083
:205C0000F2CC000050000000CADD000050000000A2EE0000500000007AFF000050000000D6
:205C200052100000510000002A210000510000000232000051000000DA4200005100000023
:205C4000B2530000510000008A6400005100000062750000510000003A8600005100000076
:205C6000328F0000510000002A9800005100000022A10000510000001AAA000051000000D6
:205C800012B30000510000000ABC00005100000002C5000051000000FACD000051000000A7
:205CA000F2D6000051000000EADF000051000000E2E8000051000000DAF10000510000007A
:205CC000D2FA000051000000CA030000520000008A0C0000520000004A15000052000000EF
:205CE0000A1E000052000000CA260000520000008A2F0000520000004A3800005200000009
:205D00000A41000052000000CA490000520000008A520000520000004A5B0000520000005C
:205D20000A64000052000000CA6C0000520000008A750000520000004A7E000052000000B0
:205D4000EACB0000520000008A190000530000002A67000053000000CAB400005300000091
:205D60006A020000540000000A50000054000000AA9D0000540000004AEB00005400000091
:205D8000EA380000550000008A860000550000002AD4000055000000CA2100005600000093
:205DA0006A6F0000560000000ABD00005600000006C10000560000007EC1000056000000E5
:205DC000C2C3000056000000B2E4000056000000A2050000570000009226000057000000EF
:205DE00082470000570000007268000057000000628900005700000052AA000057000000BD
:205E000042CB00005700000032EC000057000000220D000058000000122E0000580000008A
:205E2000024F000058000000F26F000058000000E290000058000000DA9200005800000072
:205E4000D294000058000000CA96000058000000C298000058000000BA9A0000580000006E
:205E6000B29C000058000000AA9E000058000000A2A00000580000009AA2000058000000AE
:205E800092A40000580000008AA600005800000082A80000580000007AAA000058000000EE
:205EA00072AC0000580000004EAD0000580000002AAE00005800000006AF000058000000DC
:205EC000E2AF000058000000BEB00000580000009AB100005800000076B2000058000000F0
:205EE00052B30000580000002EB40000580000000AB5000058000000E6B500005800000001
:205F0000C2B60000580000009EB70000580000007AB8000058000000B0E80000580000008A
:205F2000E6180000590000001C49000059000000527900005900000088A90000590000009E
:205F4000BED9000059000000F40900005A0000002A3A00005A000000606A00005A00000018
:205F6000969A00005A000000CCCA00005A00000002FB00005A000000382B00005B00000092
:205F80006E5B00005B000000DE6900005B000000FCA300005B0000001ADE00005B000000EE
:205FA000381800005C000000565200005C000000748C00005C00000092C600005C00000021
:205FC000B00000005D000000CE3A00005D000000EC7400005D0000000AAF00005D0000007C
:205FE00028E900005D000000462300005E000000645D00005E000000829700005E000000D6
:2060000042C600005E00000002F500005E000000C22300005F000000825200005F0000004E
:20602000428100005F00000002B000005F000000C2DE00005F000000820D0000600000003F
:20604000423C000060000000026B000060000000C29900006000000082C800006000000030
:2060600042F7000060000000022600006100000022330000610000008C6E000061000000ED
:20608000F6A900006100000060E5000061000000CA20000062000000345C0000620000001C
:2060A0009E9700006200000008D3000062000000720E000063000000DC49000063000000A1
:2060C0004685000063000000B0C00000630000001AFC000063000000843700006400000027
:2060E000EE72000064000000B07400006400000072760000640000003478000064000000F8
:20610000F679000064000000B87B0000640000007A7D0000640000003C7F0000640000009B
:20612000FE80000064000000C082000064000000828400006400000044860000640000003F
:206140000688000064000000C8890000640000008A8B000064000000268F00006400000006
:20616000C2920000640000005E96000064000000FA99000064000000969D00006400000081
:2061800032A1000064000000CEA40000640000006AA800006400000006AC00006400000066
:2061A000A2AF0000640000003EB3000064000000DAB600006400000076BA0000640000004D
:2061C00012BE0000640000001AC500006400000022CC0000640000002AD300006400000095
:2061E00032DA0000640000003AE100006400000042E80000640000004AEF00006400000085
:2062000052F60000640000005AFD00006400000062040000650000006A0B00006500000072
:2062200072120000650000007A1900006500000082200000650000008A2700006500000060
:20624000922E0000650000009A35000065000000A23C000065000000AA4300006500000050
:20626000B24A000065000000BA51000065000000C258000065000000CA5F00006500000040
:20628000D266000065000000DA6D000065000000E274000065000000EA7B00006500000030
:2062A000F282000065000000FA8900006500000002910000650000000A980000650000001E
:2062C000129F0000650000001AA600006500000022AD0000650000002AB40000650000000C
:2062E00032BB0000650000003AC200006500000042C90000650000004AD0000065000000FC
:2063000052D70000650000005ADE00006500000062E50000650000006AEC000065000000EB
:2063200072F30000650000007AFA00006500000082010000660000008A08000066000000D9
:20634000920F0000660000009A16000066000000A21D000066000000AA24000066000000C7
:20636000B22B000066000000BA32000066000000C239000066000000CA40000066000000B7
:20638000D247000066000000DA4E000066000000E255000066000000EA5C000066000000A7
:2063A000F263000066000000904C000030520000904C000030520000904C00003052000008
:2063C000904C000030520000904C000030520000904C000030520000904C00003052000045
:2063E000904C000030520000904C000030520000904C000030520000904C00003052000025
:20640000904C000030520000904C000030520000904C000030520000904C00003052000004
:20642000904C000030520000904C000030520000904C000030520000904C000030520000E4
:20644000904C000030520000904C000030520000904C000030520000904C000030520000C4
:20646000904C000030520000904C000030520000904C0000305200009A1400002CDC00004C
:206480009A1400002CDC00009A1400002CDC00009A1400002CDC00009A1400002CDC000024
:2064A0009A1400002CDC00009A1400002CDC0000242200001CBA0000242200001CBA000038
:2064C000242200001CBA0000242200001CBA0000242200001CBA0000242200001CBA00004C
:2064E000242200001CBA000024220000B2BA000024220000B2BA000024220000B2BA00006A
:2065000024220000B2BA000024220000B2BA000024220000B2BA000024220000B2BA0000B3
:206520001CA40000002400001CA40000002400001CA40000002400001CA4000000240000CB
:206540001CA40000002400001CA40000002400001CA40000002400001AA40000D6240000D7
:206560001AA40000D62400001AA40000D62400001AA40000D62400001AA40000D62400003B
:206580001AA40000D62400001AA40000D6240000BA2400001C000000BA2400001C00000097
:2065A000BA2400001C000000BA2400001C000000BA2400001C000000BA2400001C000000F3
:2065C000BA2400001C000000101600001C240000101600001C240000101600001C2400008F
:2065E000101600001C240000101600001C240000101600001C240000101600001C24000003
:2066000010160000C624000010160000C624000010160000C624000010160000C62400003A
:2066200010160000C624000010160000C624000010160000C62400002828000040A00000FA
:206640002828000040A00000501800003624000050180000362400005018000036240000C4
:20666000501800003624000050180000362400005018000036240000501800003624000012
:206680005018000036240000501800003624000050180000362400005018000036240000F2
:2066A0005018000036240000501800003624000050180000362400005018000036240000D2
:2066C0005018000036240000501800003624000050180000362400005018000036240000B2
:2066E000501800003624000050180000362400005018000036240000501800003624000092
:20670000501800003624000050180000362400005018000036240000501800003624000071
:20672000501800003624000050180000362400005018000036240000501800003624000051
:20674000501800003624000050180000362400005018000036240000501800003624000031
:20676000501800003624000050180000362400005018000036240000501800003624000011
:206780005018000036240000501800003624000050180000362400005018000036240000F1
:2067A0005018000036240000501800003624000050180000362400005018000036240000D1
:2067C0005018000036240000501800003624000050180000362400005018000036240000B1
:2067E00050180000362400004018000058240000401800005824000040180000582400005B
:20680000401800005824000040180000582400004018000058240000401800005824000028
:20682000401800005824000040180000582400004018000058240000401800005824000008
:206840004018000058240000401800005824000040180000582400004018000058240000E8
:206860004018000058240000401800005824000040180000582400004018000058240000C8
:206880004018000058240000401800005824000040180000582400004018000058240000A8
:2068A000401800005824000040180000582400004018000058240000401800005824000088
:2068C000401800005824000040180000582400004018000058240000401800005824000068
:2068E000401800005824000040180000582400004018000058240000401800005824000048
:20690000401800005824000040180000582400004018000058240000401800005824000027
:20692000401800005824000040180000582400004018000058240000401800005824000007
:206940004018000058240000401800005824000040180000582400004018000058240000E7
:206960004018000058240000401800005824000040180000582400004018000058240000C7
:20698000401800005824000034180000862400003418000086240000341800008624000041
:2069A0003418000086240000341800008624000034180000862400003418000086240000FF
:2069C0003418000086240000341800008624000034180000862400003418000086240000DF
:2069E0003418000086240000341800008624000034180000862400003418000086240000BF
:206A000034180000862400003418000086240000341800008624000034180000862400009E
:206A200034180000862400003418000086240000341800008624000034180000862400007E
:206A400034180000862400003418000086240000341800008624000034180000862400005E
:206A600034180000862400003418000086240000341800008624000034180000862400003E
:206A8000341800008624000040180000582400004018000058240000401800005824000084
:206AA000401800005824000040180000582400004018000058240000401800005824000086
:206AC000401800005824000040180000582400004018000058240000401800005824000066
:206AE000401800005824000040180000582400004018000058240000401800005824000046
:206B0000401800005824000040180000582400004018000058240000401800005824000025
:206B2000401800005824000040180000582400004018000058240000401800005824000005
:206B40004018000058240000401800005824000040180000582400004018000058240000E5
:206B60004018000058240000401800005824000040180000582400004018000058240000C5
:206B80004018000058240000984000002C460000984000002C460000984000002C46000043
:206BA000984000002C460000984000002C460000984000002C460000984000002C460000AD
:206BC000984000002C460000984000002C460000984000002C460000984000002C4600008D
:206BE000984000002C460000984000002C460000984000002C460000984000002C4600006D
:206C0000984000002C460000984000002C460000984000002C460000984000002C4600004C
:206C2000984000002C460000984000002C460000984000002C460000984000002C4600002C
:206C4000984000002C460000984000002C460000984000002C4600000C1E0000289A00006A
:206C60000C1E0000289A00000C1E0000289A00000C1E0000289A0000B84000001C460000F6
:206C8000B84000001C460000B84000001C460000B84000001C460000B84000001C4600008C
:206CA000B84000001C4600008C1C0000326A00008C1C0000326A00008C1C0000326A0000AE
:206CC0008C1C0000326A00008C1C0000326A00008C1C0000326A00008C1C0000326A0000A4
:206CE0008C1C0000326A00008C1C0000326A00008C1C0000326A00008C1C0000326A000084
:206D00008C1C0000326A00008C1C0000326A00008C1C0000326A00008C1C0000326A000063
:206D20008C1C0000326A00008C1C0000326A00008C1C0000326A00008C1C0000326A000043
:206D40008C1C0000326A00008C1C0000326A00008C1C0000326A00008C1C0000326A000023
:206D60008C1C0000326A00008C1C0000326A00008C1C0000326A000020200000B2980000BD
:206D800020200000B298000020200000B298000084200000366A000084200000366A000057
:206DA00084200000366A000084200000366A000084200000366A000084200000366A0000C3
:206DC0005C1600004AA000005C1600004AA000002014000068C800002014000068C8000033
:206DE0002828000088A000002828000088A000009E220000285200009E220000285200002F
:206E00009E220000285200009E220000285200009E220000285200009E220000285200008A
:206E2000161C00001C6A0000161C00001C6A0000161C00001C6A0000161C0000BE6A0000D0
:206E4000161C0000BE6A0000161C0000BE6A00009E220000285200009E220000285200000A
:206E600084400000364A000084400000364A000084400000364A000084400000364A000002
:206E800084400000364A000084400000364A000084400000364A000084400000364A0000E2
:206EA00084400000364A000084400000364A000084400000364A000084400000364A0000C2
:206EC00084400000364A000084400000364A000084400000364A000084400000364A0000A2
:206EE0009E220000285200009E22000028520000B84000001C460000B84000001C4600006A
:206F0000B84000001C460000B84000001C460000B84000001C460000B84000001C46000009
:206F2000B84000001C460000B84000001C460000B84000001C460000B84000001C460000E9
:206F4000B84000001C460000B84000001C460000B84000001C460000B84000001C460000C9
:206F6000B84000001C460000B84000001C460000B84000001C460000B84000001C460000A9
:206F8000B84000001C460000B84000001C460000B84000001C460000B84000001C46000089
:206FA000B84000001C460000B84000001C460000B84000001C460000B84000001C46000069
:206FC000B84000001C460000B84000001C460000B84000001C460000B84000001C46000049
:206FE000B84000001C460000B84000001C460000B84000001C460000B84000001C46000029
:20700000B84000001C460000B84000001C460000AC16000022460000AC1600002246000068
:20702000AC16000022460000AC16000022460000AC16000022460000AC16000022460000A8
:20704000AC16000022460000AC16000022460000AC16000022460000AC1600002246000088
:20706000AC16000022460000AC16000022460000AC16000022460000AC1600002246000068
:20708000AC16000022460000AC16000022460000AC16000022460000AC1600002246000048
:2070A000AC16000022460000AC16000022460000AC16000022460000AC1600002246000028
:2070C000AC16000022460000AC16000022460000AC16000022460000AC1600002246000008
:2070E000AC16000022460000AC16000022460000AC16000022460000AC16000022460000E8
:20710000AC16000022460000A80B00001B820000BB2100001B610000BB2100001B61000045
:20712000BB2100001B610000BB2100001B610000BB2100001B610000BB2100001B610000EF
:20714000BB2100001B610000BB2100001B610000BB2100001B610000BB2100001B610000CF
:20716000BB2100001B610000BB2100001B610000BB2100001B610000BB2100001B610000AF
:20718000BB2B00001B360000BB2B00001B360000BB2B00001B360000BB2B00001B36000013
:2071A000BB2B00001B360000BB2B00001B360000BB2B00001B360000BB2B00001B360000F3
:2071C000BB2B00001B360000BB2B00001B360000BB2B00001B360000BB2B00001B360000D3
:2071E000BB2B00001B360000BB2B00001B3600005F1D0000499D00005F1D0000499D00005D
:207200005F1D0000499D00005F1D0000499D00005F1D0000499D00005F1D0000499D0000E6
:207220005F1D0000499D00005F1D0000499D00005F1D0000499D00005F1D0000499D0000C6
:207240005F1D0000499D00005F1D0000499D00005F1D0000499D00005F1D0000499D0000A6
:207260005F1D0000499D00005F1D0000499D00005F1D0000499D00005F1D0000499D000086
:207280005F1D0000499D00005F1D0000499D00005F1D0000499D00005F1D0000499D000066
:2072A0005F1D0000499D00005F1D0000499D00005F1D0000499D00005F1D0000499D000046
:2072C0005F1D0000499D00005F1D0000499D00005F1D0000499D00005F1D0000499D000026
:2072E0005F1D0000499D00005F1D0000499D00005F1D0000499D00005F1D0000499D000006
:207300005F1D0000499D00005F1D0000499D00005F1D0000499D00005F1D0000499D0000E5
:207320005F1D0000499D00005F1D0000499D00005F1D0000499D00005F1D0000499D0000C5
:207340005F1D0000499D00005F1D0000499D00005F1D0000499D00005F1D0000499D0000A5
:207360005F1D0000499D00005F1D0000499D00005F1D0000499D00005F1D0000499D000085
:207380005F1D0000499D00005F1D0000499D00005F1D0000499D00005F1D0000499D000065
:2073A0005F1D0000499D00005F1D0000499D00005F1D0000499D00005F1D0000499D000045
:2073C0005F1D0000499D00005F1D0000499D00005F1D0000499D00005F1D0000499D000025
:2073E0005F1D0000499D00005F1D0000499D00005F1D0000499D00005F1D0000499D000005
:207400005F1D0000499D00005F1D0000499D00005F1D0000499D00005F1D0000499D0000E4
:207420005F1D0000499D00005F1D0000499D00005F1D0000499D00005F1D0000499D0000C4
:207440005F1D0000499D00005F1D0000499D00005F1D0000499D00005F1D0000499D0000A4
:207460005F1D0000499D00005F1D0000499D00005F1D0000499D00005F1D0000499D000084
:207480005F1D0000499D00005F1D0000499D00005F1D0000499D00005F1D0000499D000064
:2074A0005F1D0000499D00005F1D0000499D00005F1D0000499D00005F1D0000499D000044
:2074C0005F1D0000499D0000292500005ABA0000292500005ABA0000292500005ABA000024
:2074E000292500005ABA0000292500005ABA0000292500005ABA0000292500005ABA000004
:20750000292500005ABA0000292500005ABA0000292500005ABA0000292500005ABA0000E3
:20752000292500005ABA0000292500005ABA0000292500005ABA0000A80A00001B820000D6
:20754000BB2A00001B620000BB2A00001B620000BB2A00001B620000BB2A00001B620000A3
:20756000BB2A00001B620000BB2A00001B620000BB2A00001B620000BB2A00001B62000083
:20758000BB2A00001B620000BB2A00001B620000BB2A00001B620000BB2A00001B62000063
:2075A000BB2A00001B620000BB2A00001B620000162E0000358C0000162E0000358C0000FD
:2075C000162E0000358C0000162E0000358C0000162E0000358C0000162E0000358C000097
:2075E000162E0000358C0000162E0000358C0000162E0000358C0000162E0000358C000077
:20760000162E0000358C0000162E0000358C0000162E0000358C0000162E0000358C000056
:20762000271200005B8C0000271200005B8C0000271200005B8C0000271200005B8C0000CA
:20764000271200005B8C0000271200005B8C0000271200005B8C0000271200005B8C0000AA
:20766000271200005B8C0000271200005B8C0000271200005B8C0000271200005B8C00008A
:20768000271200005B8C0000271200005B8C0000162E00009F8C0000162E00009F8C0000CC
:2076A000162E00009F8C0000162E00009F8C0000162E00009F8C0000162E00009F8C00000E
:2076C000162E00009F8C0000162E00009F8C0000162E00009F8C0000162E00009F8C0000EE
:2076E000162E00009F8C0000162E00009F8C0000162E00009F8C0000162E00009F8C0000CE
:20770000141A0000521B0000141A0000521B0000141A0000521B0000141A0000521B0000FD
:20772000141A0000521B0000141A0000521B0000141A0000521B0000141A0000521B0000DD
:20774000141A0000521B0000141A0000521B0000141A0000521B0000141A0000521B0000BD
:20776000141A0000521B0000141A0000521B00007D2D0000353500007D2D000035350000AB
:207780007D2D0000353500007D2D0000353500007D2D0000353500007D2D00003535000099
:2077A0007D2D0000353500007D2D0000353500007D2D0000353500007D2D00003535000079
:2077C0007D2D0000353500007D2D0000353500007D2D0000353500007D2D00003535000059
:2077E0004D1C0000519E00004D1C0000519E00004D1C0000519E00004D1C0000519E000029
:207800004D1C0000519E00004D1C0000519E00004D1C0000519E00004D1C0000519E000008
:207820004D1C0000519E00004D1C0000519E00004D1C0000519E00004D1C0000519E0000E8
:207840004D1C0000519E00004D1C0000519E00004D1C0000519E00004D1C0000519E0000C8
:207860004D1C0000519E00004D1C0000519E00004D1C0000519E00004D1C0000519E0000A8
:207880004D1C0000519E00004D1C0000519E00004D1C0000519E00004D1C0000519E000088
:2078A0004D1C0000519E00004D1C0000519E0000291C000021820000291C00002182000048
:2078C000291C000021820000291C000021820000291C000021820000291C00002182000008
:2078E000291C000021820000291C000021820000291C000021820000291C000021820000E8
:20790000291C000021820000291C000021820000291C000021820000291C000021820000C7
:20792000281C00007D820000281C00007D820000281C00007D820000281C00007D8200003B
:20794000281C00007D820000281C00007D820000281C00007D820000281C00007D8200001B
:20796000281C00007D820000281C00007D820000281C00007D820000281C00007D820000FB
:20798000281C00007D820000281C00007D820000D82E00000D540000D82E00000D54000093
:2079A000D82E00000D540000D82E00000D540000D82E00000D540000D82E00000D5400002B
:2079C000D82E00000D540000D82E00000D540000D82E00000D540000D82E00000D5400000B
:2079E000D82E00000D540000D82E00000D540000D82E00000D540000D82E00000D540000EB
:207A0000330A00004A820000060A00001B8200001D0A0000A5820000881F00003035000056
:207A2000881F000030350000881F000030350000881F000030350000881F00003035000016
:207A4000881F000030350000881F000030350000881F000030350000881F000030350000F6
:207A6000881F000030350000881F000030350000881F000030350000881F000030350000D6
:207A8000881F0000303500000E120000412000000E120000412000000E1200004120000057
:207AA0000E120000412000000E120000412000000E120000412000000E12000041200000C2
:207AC0000E120000412000000E120000412000000E120000412000000E12000041200000A2
:207AE0000E120000412000000E120000412000000E120000412000000A0B00009E27000029
:207B00000A0B00009E2700000A0B00009E2700000A0B00009E2700000A0B00009E270000FD
:207B20000A0B00009E2700000A0B00009E2700000A0B00009E2700000A0B00009E270000DD
:207B40000A0B00009E2700000A0B00009E2700000A0B00009E2700000A0B00009E270000BD
:207B60000A0B00009E270000BB2100001B610000BB2100001B610000BB2100001B61000023
:207B8000BB2100001B610000BB2100001B610000BB2100001B610000BB2100001B61000085
:207BA000BB2100001B610000BB2100001B610000BB2100001B610000BB2100001B61000065
:207BC000BB2100001B610000BB2100001B610000BB2100001B610000A80B00001B8200004D
:207BE000AD2B000021360000AD2B000021360000AD2B000021360000AD2B000021360000C9
:207C0000AD2B000021360000AD2B000021360000AD2B000021360000AD2B000021360000A8
:207C2000AD2B000021360000AD2B000021360000AD2B000021360000AD2B00002136000088
:207C4000AD2B000021360000AD2B000021360000BB2000001B620000BB2000001B62000016
:207C6000BB2000001B620000BB2000001B620000BB2000001B620000BB2000001B620000A4
:207C8000BB2000001B620000BB2000001B620000BB2000001B620000BB2000001B62000084
:207CA000BB2000001B620000BB2000001B620000BB2000001B620000BB2000001B62000064
:207CC000A80A00001B820000A92D000027350000A92D000027350000A92D000027350000BF
:207CE000A92D000027350000A92D000027350000A92D000027350000A92D000027350000BC
:207D0000A92D000027350000A92D000027350000A92D000027350000A92D0000273500009B
:207D2000A92D000027350000A92D000027350000A92D0000273500000F0F00003026000039
:207D40000F0F0000302600000F0F0000302600000F0F0000302600000F0F00003026000053
:207D60000F0F0000302600000F0F0000302600000F0F0000302600000F0F00003026000033
:207D80000F0F0000302600000F0F0000302600000F0F0000302600000F0F00003026000013
:207DA0000F0F00003026000015160000901F000015160000901F000015160000901F0000C1
:207DC00015160000901F000015160000901F000015160000901F000015160000901F00003B
:207DE00015160000901F000015160000901F000015160000901F000015160000901F00001B
:207E000015160000901F000015160000901F000015160000901F000024190000661C000015
:207E200024190000661C000024190000661C000024190000661C000024190000661C000046
:207E400024190000661C000024190000661C000024190000661C000024190000661C000026
:207E600024190000661C000024190000661C000024190000661C000024190000661C000006
:207E800024190000661C000024190000661C000024190000661C000024190000661C0000E6
:207EA00024190000661C000024190000661C000024190000661C000024190000661C0000C6
:207EC00024190000661C000024190000661C000024190000661C000024190000661C0000A6
:207EE00024190000661C000024190000661C000024190000661C000024190000661C000086
:207F000024190000661C000024190000661C000024190000661C000024190000661C000065
:207F200024190000661C000024190000661C000024190000661C000024190000661C000045
:207F400024190000661C000024190000661C000024190000661C000024190000661C000025
:207F600024190000661C000024190000661C000024190000661C000024190000661C000005
:207F800024190000661C000024190000661C000024190000661C000024190000661C0000E5
:207FA00024190000661C000024190000661C000024190000661C000024190000661C0000C5
:207FC00024190000661C000024190000661C000024190000661C000024190000661C0000A5
:207FE00024190000661C000024190000661C000024190000661C000024190000661C000085
:208000008D01000097010000A701000092010000A20100009D0100009C0100000C01000014
:208020000701000011010000FD00000002010000FC0000003D0100003E0100003F0100006D
:2080400041010000420100004001000030010000250100002A010000200100003501000081
:208060002F010000570100005C010000620100006101000015000000000000000A00000037
:208080000F0000000500000014000000000200000501000004030000880100006F010000B0
:2080A0008301000079010000740100007E0100006A010000690100000000000000000000F9
:2080C0000000000007E000000C3000001818000018180000300C0000300C0000300C000069
:2080E000300C0000300C0000300C0000300C0000300C000018180000181800000C300000B8
:2081000007E00000000000000000000000000000000000000000000000C0000000C00000F8
:2081200001C000000FC0000000C0000000C0000000C0000000C0000000C0000000C000002F
:2081400000C0000000C0000000C0000000C0000000C0000000C0000000000000000000009F
:2081600000000000000000000000000003E000000E3000000C18000018180000181800005A
:208180001818000000180000003000000060000000C0000003800000060000000C000000B2
:2081A00018000000180000003FF80000000000000000000000000000000000000000000058
:2081C000000000003E00000063000000618000006180000001800000030000000F000000A9
:2081E0000180000000C0000000C0000060C0000060C00000618000003F000000000000001E
:208200000000000000000000000000000000000000000000018000000380000007800000D3
:20822000078000000F8000001B8000001B8000003380000063800000638000003FC000007A
:208240000380000003800000038000000FE0000000000000000000000000000000000000A6
:208260000000000000000000000000003FC00000300000003000000030000000300000003F
:208280003F0000003980000030C0000000C0000000C0000060C0000060C000006180000055
:2082A0003F000000000000000000000000000000000000000000000000000000000000007F
:2082C0000F80000018C0000030C0000030000000600000007F0000007180000060C0000027
:2082E00060C0000060C0000060C0000030C00000318000001F00000000000000000000005E
:2083000000000000000000000000000000000000000000007FC000006180000063000000DA
:208320000300000006000000060000000C0000000C000000180000001800000018000000CE
:208340001800000018000000180000000000000000000000000000000000000000000000D5
:2083600000000000000000001F0000003180000060C0000060C0000060C00000318000001C
:208380001F0000003180000060C0000060C0000060C0000060C00000318000001F000000BD
:2083A000000000000000000000000000000000000000000000000000000000001F0000009E
:2083C000318000006180000060C0000060C0000060C0000060C0000031C000001FC00000BB
:2083E00000C000000180000061800000630000003E000000000000000000000000000000BA
:2084000000000000000000000000000000000000060000000E0000000E0000000F0000002B
:208420001B0000001B0000001B000000318000003F800000318000003180000060C00000F9
:2084400060C00000F1E000000000000000000000000000000000000000000000000000002B
:20846000000000007F0000003180000030C0000030C0000030C00000318000003F0000000C
:2084800031C000003060000030600000306000003060000030C000007F80000000000000BC
:2084A0000000000000000000000000000000000000000000000000000FE0000018E00000D5
:2084C00030600000306000006000000060000000600000006000000060000000600000003C
:2084E000606000003060000038C000000F80000000000000000000000000000000000000A5
:208500000000000000000000000000007F0000003180000030C0000030C0000030600000BB
:20852000306000003060000030600000306000003060000030C0000030C0000031800000DA
:208540007F000000000000000000000000000000000000000000000000000000000000009C
:208560007FC0000030C00000306000003000000031800000318000003F800000318000003A
:208580003180000030000000300000003060000030C000007FC0000000000000000000000B
:2085A00000000000000000000000000000000000000000007FC0000030C0000030600000FC
:2085C0003000000031800000318000003F8000003180000031800000300000003000000088
:2085E0003000000030000000780000000000000000000000000000000000000000000000A3
:2086000000000000000000000FC0000019C0000030C0000030C00000600000006000000012
:20862000600000006000000061E0000060C0000030C0000030C0000018C000000F800000D2
:208640000000000000000000000000000000000000000000000000000000000079E00000C1
:2086600030C0000030C0000030C0000030C0000030C000003FC0000030C0000030C000006B
:2086800030C0000030C0000030C0000030C0000079E00000000000000000000000000000C1
:2086A000000000000000000000000000000000003FC00000060000000600000006000000A9
:2086C00006000000060000000600000006000000060000000600000006000000060000006A
:2086E000060000003FC0000000000000000000000000000000000000000000000000000075
:20870000000000000FF0000001800000018000000180000001800000018000000180000054
:208720000180000001800000018000000180000001800000018000006180000063000000EF
:208740003E00000000000000000000000000000000000000000000007BE0000030C0000090
:208760003180000033000000360000003C0000003E000000360000003300000033000000C9
:20878000318000003180000030C0000079E00000000000000000000000000000000000002E
:2087A000000000000000000000000000780000003000000030000000300000003000000081
:2087C0003000000030000000300000003000000030000000300000003060000030C00000F9
:2087E0007FC00000000000000000000000000000000000000000000000000000000000003A
:20880000F0F0000070E0000070E0000070E0000079E0000079E0000079E000007B600000A2
:208820006F6000006F6000006F6000006660000066600000F6F00000000000000000000059
:20884000000000000000000000000000000000000000000079E0000038C000003CC00000CB
:208860003CC000003CC0000036C0000036C0000036C0000033C0000033C0000031C0000047
:2088800031C0000031C0000078C000000000000000000000000000000000000000000000BE
:2088A00000000000000000000F0000001980000030C00000606000006060000060600000E0
:2088C000606000006060000060600000606000006060000030C00000198000000F00000040
:2088E000000000000000000000000000000000000000000000000000000000007F80000079
:2089000030C0000030600000306000003060000030C000003F8000003000000030000000A8
:208920003000000030000000300000003000000078000000000000000000000000000000FF
:20894000000000000000000000000000000000000F0000001980000030C0000060600000BF
:208960006060000060600000606000006060000060600000606000006E6000003BC00000AE
:208980003BC000000F80000001E0000001C0000000000000000000000000000000000000AB
:2089A000000000007F0000003180000030C0000030C0000030C00000318000003F000000C7
:2089C000360000003300000033000000318000003180000030C0000078E000000000000051
:2089E0000000000000000000000000000000000000000000000000001FC0000031C00000A7
:208A000060C0000060C0000060000000300000001C000000070000000180000000C0000022
:208A200060C0000060C00000718000007F0000000000000000000000000000000000000086
:208A40000000000000000000000000003FC00000666000006660000006000000060000007F
:208A60000600000006000000060000000600000006000000060000000600000006000000C6
:208A80000F00000000000000000000000000000000000000000000000000000000000000C7
:208AA00079E0000030C0000030C0000030C0000030C0000030C0000030C0000030C00000CD
:208AC00030C0000030C0000030C0000030C00000198000000F00000000000000000000002E
:208AE0000000000000000000000000000000000000000000F1F000006060000030C00000E5
:208B000030C0000030C00000198000001980000019800000198000000F0000000F000000F3
:208B20000F000000060000000600000000000000000000000000000000000000000000001A
:208B40000000000000000000FFF0000066600000666000006660000066C0000037C00000B7
:208B60003FC000003FC000003FC000003FC000003FC000001980000019800000198000002F
:208B80000000000000000000000000000000000000000000000000000000000079E000007C
:208BA00030C0000019800000198000000F0000000F00000006000000060000000F0000005A
:208BC0000F000000198000001980000030C0000079E000000000000000000000000000000B
:208BE0000000000000000000000000000000000079E0000030C000001980000019800000FA
:208C00001B0000000F0000000F0000000600000006000000060000000600000006000000FD
:208C2000060000000F0000000000000000000000000000000000000000000000000000001F
:208C4000000000003FE0000030C0000060C000000180000003000000030000000600000058
:208C6000060000000C00000018000000180000003060000030C000007FC0000000000000F3
:208C8000000000000000000000000000000000000FC000000C0000000C0000000C000000E1
:208CA0000C0000000C0000000C0000000C0000000C0000000C0000000C0000000C00000054
:208CC0000C0000000C0000000C0000000C0000000C0000000FC00000000000000000000089
:208CE000000000000000000030000000300000001800000018000000180000000C000000C0
:208D00000C000000060000000600000006000000030000000300000001800000018000002D
:208D20000180000000C0000000C000000000000000000000000000007E00000006000000AE
:208D40000600000006000000060000000600000006000000060000000600000006000000E3
:208D6000060000000600000006000000060000000600000006000000060000007E0000004B
:208D80000000000000000000000000001E0000001E00000033000000000000000000000064
:208DA0000000000000000000000000000000000000000000000000000000000000000000B3
:208DC000000000000000000000000000000000000000000000000000000000000000000093
:208DE000000000000000000000000000000000000000000000000000000000000000000073
:208E0000000000000000000000000000000000000000000000000000000000000000000052
:208E20000000000000000000FFE0000000000000000000001C000000060000000000000031
:208E4000000000000000000000000000000000000000000000000000000000000000000012
:208E60000000000000000000000000000000000000000000000000000000000000000000F2
:208E80000000000000000000000000000000000000000000000000000000000000000000D2
:208EA000000000001F00000031800000318000000F80000039800000618000006180000027
:208EC00063E000003FE0000000000000000000000000000000000000000000000000000030
:208EE0000000000070000000300000003000000030000000300000003F80000038C000008B
:208F0000306000003060000030600000306000003060000038C000003F80000000000000CA
:208F2000000000000000000000000000000000000000000000000000000000000000000031
:208F40000000000000000000000000001F00000031800000618000006000000060000000A0
:208F60006000000060C00000318000001F00000000000000000000000000000000000000A1
:208F800000000000000000000000000001C0000000C0000000C0000000C0000000C0000010
:208FA0001FC0000031C0000060C0000060C0000060C0000060C0000060C0000031E0000030
:208FC0001FC0000000000000000000000000000000000000000000000000000000000000B2
:208FE00000000000000000000000000000000000000000001F0000003180000060C0000081
:209000007FC00000600000006000000060C00000318000001F000000000000000000000061
:20902000000000000000000000000000000000000000000003C00000066000000C000000FB
:209040000C0000000C0000007F8000000C0000000C0000000C0000000C0000000C000000BD
:209060000C0000000C0000003F800000000000000000000000000000000000000000000019
:20908000000000000000000000000000000000000000000000000000000000001FF00000C1
:2090A00030F0000030C0000030C0000030C000001F800000300000003F80000030E0000022
:2090C00060600000706000003FC00000000000000000000000000000000000007000000091
:2090E000300000003000000030000000300000003F80000038C0000030C0000030C0000019
:2091000030C0000030C0000030C0000030C0000079E0000000000000000000000000000036
:20912000000000000000000000000000000000000E0000000E000000000000000000000013
:20914000000000001E000000060000000600000006000000060000000600000006000000CD
:20916000060000001F8000000000000000000000000000000000000000000000000000004A
:209180000000000003800000038000000000000000000000000000000780000001800000C1
:2091A0000180000001800000018000000180000001800000018000000180000001800000A7
:2091C000330000003E0000000000000000000000000000000000000070000000300000007E
:2091E00030000000300000003000000033C0000033000000360000003C0000003E00000009
:20920000330000003180000030C0000079E000000000000000000000000000000000000021
:209220000000000000000000000000003E00000006000000060000000600000006000000D8
:209240000600000006000000060000000600000006000000060000000600000006000000DE
:209260003FC0000000000000000000000000000000000000000000000000000000000000EF
:209280000000000000000000000000000000000000000000FFE00000776000006660000052
:2092A0006660000066600000666000006660000066600000FFF000000000000000000000E1
:2092C00000000000000000000000000000000000000000000000000000000000000000008E
:2092E00000000000000000007F80000038C0000030C0000030C0000030C0000030C00000B7
:2093000030C0000030C0000079E00000000000000000000000000000000000000000000014
:20932000000000000000000000000000000000000000000000000000000000001F0000000E
:209340003180000060C0000060C0000060C0000060C0000060C00000318000001F000000EC
:209360000000000000000000000000000000000000000000000000000000000000000000ED
:20938000000000000000000000000000000000007F80000038C000003060000030600000B6
:2093A00030600000306000003060000038C000003F8000003000000030000000780000006E
:2093C00000000000000000000000000000000000000000000000000000000000000000008D
:2093E000000000001FC0000031C0000060C0000060C0000060C0000060C0000060C00000FD
:2094000031C000001FC0000000C0000000C0000001E000000000000000000000000000001B
:209420000000000000000000000000000000000000000000000000007BE000001E60000053
:209440001C00000018000000180000001800000018000000180000007F00000000000000F9
:209460000000000000000000000000000000000000000000000000000000000000000000EC
:209480000000000000000000000000001FC0000031C0000030C00000380000000F000000C5
:2094A00001C0000030C0000038C000003F8000000000000000000000000000000000000044
:2094C00000000000000000000000000000000000000000000C0000000C0000000C00000068
:2094E0003F8000000C0000000C0000000C0000000C0000000C0000000CC000000CC00000D9
:209500000780000000000000000000000000000000000000000000000000000000000000C4
:20952000000000000000000000000000000000000000000071C0000030C0000030C000001A
:2095400030C0000030C0000030C0000030C0000031E000001FC0000000000000000000005B
:209560000000000000000000000000000000000000000000000000000000000000000000EB
:20958000000000000000000079E0000030C000001980000019800000198000000F000000A8
:2095A0000F0000000600000006000000000000000000000000000000000000000000000090
:2095C00000000000000000000000000000000000000000000000000000000000FFF000009C
:2095E0006660000066E000003FC000003FC000003FC000003FC00000198000001980000031
:2096000000000000000000000000000000000000000000000000000000000000000000004A
:209620000000000000000000000000000000000079E0000030C00000198000000F00000039
:20964000060000000F0000001980000030C0000079E0000000000000000000000000000013
:209660000000000000000000000000000000000000000000000000000000000000000000EA
:20968000000000007BE0000030C0000019800000198000000F0000000F0000000600000029
:2096A00006000000060000000C0000003C000000380000000000000000000000000000001E
:2096C0000000000000000000000000000000000000000000000000007F8000006300000028
:2096E00066000000060000000C0000001800000030C00000618000007F800000000000000A
:209700000000000000000000000000000000000001C000000300000003000000030000007F
:20972000030000000300000003000000070000000C00000007000000030000000300000000
:20974000030000000300000003000000030000000300000001C00000000000000600000033
:209760000600000006000000060000000600000006000000060000000600000006000000B9
:20978000060000000600000006000000060000000600000006000000060000000600000099
:2097A000060000000600000006000000060000000000000000000000380000000C0000004D
:2097C0000C0000000C0000000C0000000C0000000C0000000E000000030000000E0000002E
:2097E0000C0000000C0000000C0000000C0000000C0000000C0000000C00000038000000DD
:20980000000000003C000000763000006370000001E00000000000000000000000000000B2
:20982000000000000000000000000000000000000000000000000000000000000000000028
:20984000000000000000000000000000000000000000000000000000000000000000000008
:209860000000000000000000000000000000000000000000000000000000000000000000E8
:209880000000000000000000000000000000000000000000000000000000000000000000C8
:2098A0000000000000000000000000000000000000000000000000000E0000000E0000008C
:2098C0000E0000000E0000000E000000060000000600000006000000060000000600000040
:2098E0000600000000000000000000000E0000000E00000000000000000000000000000046
:2099000000000000000000001F8000001F8000003F000000360000006C0000000000000028
:20992000000000000000000000000000000000000000000000000000000000000000000027
:20994000000000000000000000000000000000000000000000000000000000000000000007
:209960000000000018C0000018C0000018C000007FE0000018C0000018C0000018C0000078
:2099800031800000318000007FE00000318000003180000031800000318000000000000042
:2099A0000000000000000000000000000000000000000000060000000F8000001EC0000034
:2099C00036C0000037C00000360000001E0000000E000000070000000780000006C00000E4
:2099E0003EC0000036C00000378000001F0000000600000006000000000000000000000091
:209A000000000000000000000000000038C000006D8000006D8000006F0000006F00000096
