:041000005EEF08F0A7
:061008005282E5EF42F008
:101018005280D8CF8AF1E8CF8BF1E0CF8CF1FACFAC
:101028008DF1FBCF8EF1E9CF8FF1EACF90F1E1CFCF
:1010380091F1E2CF92F1D9CF93F1DACF94F1F3CFD6
:1010480095F1F4CF96F1F6CF97F1F7CF98F1F8CF65
:1010580099F1F5CF9AF19DB29EA203D07CEC5CF099
:1010680005D0F2BAF2A402D03CEC5CF09AC1F5FFCC
:1010780099C1F8FF98C1F7FF97C1F6FF96C1F4FF31
:1010880095C1F3FF94C1DAFF93C1D9FF92C1E2FF82
:1010980091C1E1FF90C1EAFF8FC1E9FF8EC1FBFF5B
:1010A8008DC1FAFF8CC1E0FF8BC1E8FF8AC1D8FF70
:1010B8005290100067EF3FF000E408B1087F084D38
:1010C800081C08EA07B907880758072807F806C957
:1010D800069B066E0641061506E905BE0594056BD6
:1010E8000543051B05F504CF04AA048604630441DF
:1010F800041F04FF03DF03C003A203850369034D34
:101108000332031803FF02E602CF02C10EB40EA693
:101118000E980E8A0E7B0E6C0E5C0E4B0E3B0E2943
:101128000E180E050EF30DE00DCC0DB80DA30D8EA7
:101138000D780D620D4B0D340D1D0D050DEC0CD306
:101148000CBA0CA00C850C6A0C4F0C340C170CFB59
:101158000BDE0BC10BA30B850B670B490B2A0B0B83
:101168000BEB0ACB0AAB0A8B0A6B0A4A0A2A0A0952
:101178000AE809C709A6098409630942092009FF81
:1011880008DE08BD089B087A08590838081708F7C8
:1011980007D607B60796077607560737071807F9D9
:1011A80006DA06BC069E0680066206450629060C77
:1011B80006F005D405B9059D05830568054E053576
:1011C800051B050205EA04D204BA04A2048B0475BF
:1011D800045E044904CEB80098B80088B80080942A
:1011E80000609900C2B8005AA20058B90050B9006E
:1011F80048B90040B90038B90030B90028B900B67C
:10120800B8001EA50016016E01B701EF0117022FE5
:101218000236023C0241024402470249024B02568E
:101228006572736F6E32333038303431303033306A
:10123800554E49544F5773496E665F333000001F4F
:101248001C1F1E1F1E1F1F1E1F1E1F43303033363C
:101258002D54303030363233303633303132304935
:101268006E665F333000000E0001D06F24EE37F059
:1012780010EED2F00B0EDBCFE3FFE806FCE2000E27
:10128800CF6F000EDE6F000EDF6F000ED16FC7EF5D
:1012980016F020EE06F0C551D926C651DA22DE0432
:1012A800D8A4A7EF17F020EE07F0C551D926C651EC
:1012B800DA22030EDF60A7EF17F056C2C7F320EE5D
:1012C80007F0C551D926C651DA22DE04D8A407D0C2
:1012D800030E0301C66F000EC9EC3CF010D020EEDF
:1012E80007F0C551D926C651DA22020EDE18D8A455
:1012F80006D0030E0301C66F010EC9EC3CF00001D5
:1013080020EE05F0C551D926C651DA22DE04D8A44C
:1013180006D0010ED26F010ED36F020E78D2010EE5
:1013280000019FEF11F020EE05F0C551D926C651F6
:10133800DA22020EDE18D8A443D020EE06F0C551FA
:10134800D926C651DA22020EDE18D8A4A7EF17F064
:1013580020EE07F0C551D926C651DA223C0EDF60CF
:1013680008D020EE07F0C551D926C651DA223C0E26
:1013780010D020EE07F0C551D926C651DA22690EE1
:10138800DF6408D020EE07F0C551D926C651DA220D
:10139800690EDF6E20EE07F0C551D926C651DA2254
:1013A800DF5001016B6F6B51FE0F6C6F6BC100F367
:1013B800010E0301016F6CC102F3010E036FAFD779
:1013C8006BC1D2F001016C516B5D0001D36F70C12C
:1013D800D4F0030E1CD220EE05F0C551D926C65113
:1013E800DA22020EDE18D8A421D020EE06F0C5516C
:1013F800D926C651DA22020EDE18D8A4A7EF17F0B4
:1014080020EE07F0C551D926C651DA22DF50010176
:10141800716F7151030F726F71C106F3010E0301F1
:10142800076F72C108F3010E096F79D771C1D2F045
:1014380001017151725D0001D36F73C1D4F0C9D736
:1014480020EE05F0C551D926C651DA22020EDE1863
:10145800D8A439D020EE06F0C551D926C651DA22D3
:10146800DE04D8A4A7EF17F020EE07F0C551D9265F
:10147800C651DA22DF50D8B452D720EE07F0C55152
:10148800D926C651DA22040EDF6049D720EE07F0CC
:10149800C551D926C651DA22DF5002016E6F6EC2DD
:1014A800C8F00001C847C847C8470201D651000123
:1014B800C819E70BC8190201D66F6EC230F3010EC6
:1014C8000301316F2CD7010ED26F6EC2D3F025D72E
:1014D80020EE05F0C551D926C651DA22020EDE18D3
:1014E800D8A425D120EE03F0C551D926C651DA2259
:1014F8003A0EDE1803E10C0EDE18D8A4A7EF17F099
:1015080020EE08F0C551D926C651DA22DE04D8A447
:101518008CD020EE07F0C551D926C651DA22DF500B
:101528000201486F000120EE07F0C551D926C651C7
:10153800DA22DF5003017E6F010E7F6F000120EE7B
:1015480009F0C551D926C651DA22DF500201466F8B
:10155800000120EE09F0C551D926C651DA22DF5024
:101568000301666F010E676F000120EE0AF0C55196
:10157800D926C651DA22DF500201496F000120EE58
:101588000BF0C551D926C651DA22DF5002014A6F45
:101598006E0E495D010E4A59D8B004D049514A111E
:1015A800D8A404D0010E4A6F6D0E496F49C26EF37C
:1015B800010E03016F6F4AC270F3010E716F49C2C9
:1015C8004BF24AC24CF2640E0201446FDC93000EE7
:1015D800406F000E3F6F000E3E6F000E436F000E0F
:1015E800426F000E416F55C247F253C24DF254C2CA
:1015F8004EF255C24FF253C268F3010E0301696FF0
:1016080054C26AF3010E6B6F55C26CF3010E6D6F15
:10161800000E786F010E796F000E7A6F010E7B6FE6
:10162800000E7C6F010E7D6F7AD620EE08F0C55152
:10163800D926C651DA22020EDE18D8A446D020EEEA
:1016480007F0C551D926C651DA22DF5002017A6F58
:10165800000120EE09F0C551D926C651DA22DF5023
:1016680002017D6F7D51020DF3CFC8F0F4CFC9F0B0
:10167800C80E0001C82502017E6F000E0001C921B5
:1016880002017F6F640E7B6FDC957EC20EF07FC215
:101698000FF0000E116E640E106E88EC5AF00EC03A
:1016A80080F20FC081F27DC258F3010E0301596F19
:1016B80080C25AF3010E5B6F81C25CF3010E5D6F4D
:1016C8007AC25EF3010E5F6F2AD620EE08F0C5518C
:1016D800D926C651DA22030EDE18D8A420D620EE69
:1016E80009F0C551D926C651DA22DF500101006F31
:1016F800640E106F000E146F000E136F00C18AF392
:10170800010E03018B6F13C1AAF3010EAB6F14C155
:10171800ACF3010EAD6F01011C51D8A400D6040E24
:101728001C6F1CC1B4F3010E0301B56FF8D520EE90
:1017380003F0C551D926C651DA22240EDE1811E16C
:101748000C0EDE18D8A40DD0020144518009000106
:10175800D26F02017B5180090001D36FE40ED46F70
:1017680038D648C2D2F044C2D3F04BC2D4F04CC2EF
:10177800D5F043C0D6F044C0D7F07AC2D8F07BC2C7
:10178800D9F000C1DAF010C1DBF00A0E40D020EE2B
:1017980005F0C551D926C651DA22020EDE18D8A4A2
:1017A80031D020EE06F0C551D926C651DA22DE0422
:1017B800D8A4A7EF17F020EE07F0C551D926C651D7
:1017C800DA22030EDF60A7EF17F020EE07F0C5510D
:1017D800D926C651DA22DF500101446F010E0001FB
:1017E800CF6F44C10AF3010E03010B6F000E3E6E6A
:1017F8000D0E3D6E44C13FF0800E406EABEC41F0E3
:10180800A7EF17F0010ED26F44C1D3F086D5D06F81
:10181800A7EF17F0010ED26FF2C0D3F07ED520EEFD
:1018280005F0C551D926C651DA22020EDE18D8A411
:1018380065D020EE06F0C551D926C651DA22070E2A
:10184800DE18D8A4A7EF17F020EE0DF0C551D92661
:10185800C651DA22DF5042EC5BF00001CC6F3C0E3F
:10186800CC61A7EF17F020EE07F0C551D926C65175
:10187800DA22DF5002015A6F000120EE08F0C5514C
:10188800D926C651DA22DF5002015B6F000120EE33
:1018980009F0C551D926C651DA22DF5002015C6F22
:1018A800000120EE0AF0C551D926C651DA22DF50D0
:1018B80002015D6F000120EE0BF0C551D926C6511B
:1018C800DA22DF500201576F000120EE0CF0C551FB
:1018D800D926C651DA22DF500201586F000120EEE6
:1018E8000DF0C551D926C651DA22DF500201596FD1
:1018F800020E5E6F000E0301C76F11D553C2D2F0FE
:1019080054C2D3F055C2D4F056C2D5F050C2D6F066
:1019180051C2D7F052C2D8F0F3EF14F020EE03F022
:10192800C551D926C651DA222B0EDE180AE10C0E53
:10193800DE18D8A406D0000EDE6F000ECE6F060E9D
:1019480012D020EE03F0C551D926C651DA222C0E4A
:10195800DE180AE10C0EDE18D8A406D0010EDE6FE0
:10196800000ECE6F0F0ECD6F20EE05F0C551D926B3
:10197800C651DA22020EDE18D8A40BD120EE06F0EA
:10198800C551D926C651DA22090EDE18D8A4A7EF08
:1019980017F020EE07F0C551D926C651DA22DF50DC
:1019A800D8B4BDD420EE07F0C551D926C651DA22E5
:1019B800DE510A0D320EF324E16E020EF420E26EBF
:1019C800DFCFE7FF010ED16F000EDF6F030EDF657B
:1019D80001D044D0D151C525C86F000EC621C96FAA
:1019E800070EC825D96E000EC921DA6EDE510A0D20
:1019F8002A0ECA6F020ECB6FF350CA27F450CB23BE
:101A0800DF51CA25E16E000ECB21E26EDFCFE7FF82
:101A1800D12BD151C525C86F000EC621C96F070E3D
:101A2800C825D96E000EC921DA6EDE510A0D2A0EBC
:101A3800CA6F020ECB6F040ECA27000ECB23F350D9
:101A4800CA27F450CB23DF51CA25E16E000ECB2103
:101A5800E26EDFCFE7FFD12BDF2BB8D7000E0301F3
:101A6800C76F0001DE510A0D320EF324D96E020E43
:101A7800F420DA6ED890CD35E16ECE35E26E000EE8
:101A8800E126030EE222DFCFE7FFD890CD35D96EED
:101A9800CE35DA6E010ED926030EDA22010EDF6E7C
:101AA800010ED16F000EDF6F030EDF6501D06CD021
:101AB800DE510A0D2A0EC86F020EC96FF350C827EF
:101AC800F450C923DF51C825D96E000EC921DA6E3A
:101AD800D151CD25CA6F000ECE21CB6FD890CA3711
:101AE800CB37000ECA25E16E030ECB21E26EDFCFA5
:101AF800E7FFD151CD25C86F000ECE21C96FD89010
:101B0800C837C937010EC825D96E030EC921DA6E48
:101B1800010EDF6ED12BDE510A0D2A0EC86F020EA0
:101B2800C96F040EC827000EC923F350C827F45004
:101B3800C923DF51C825D96E000EC921DA6ED151EB
:101B4800CD25CA6F000ECE21CB6FD890CA37CB37C0
:101B5800000ECA25E16E030ECB21E26EDFCFE7FF50
:101B6800D151CD25C86F000ECE21C96FD890C83786
:101B7800C937010EC825D96E030EC921DA6E010EC8
:101B8800DF6ED12BDF2B90D7FA0E0101276F93EF71
:101B980009F0DE510A0D320EF324D96E020EF4203C
:101BA800DA6EDF50D26FDE510A0D2A0EF324D96E99
:101BB800020EF420DA6EDF50D36FDE510A0D2E0EBE
:101BC800F324D96E020EF420DA6EDF50D46FDE51A2
:101BD8000A0D2B0EF324D96E020EF420DA6EDF50B4
:101BE800D56FDE510A0D2F0EF324D96E020EF420A4
:101BF800DA6EDF50D66FDE510A0D2C0EF324D96E43
:101C0800020EF420DA6EDF50D76FDE510A0D300E67
:101C1800F324D96E020EF420DA6EDF50D86FDE514D
:101C28000A0D2D0EF324D96E020EF420DA6EDF5061
:101C3800D96FDE510A0D310EF324D96E020EF4204D
:101C4800DA6EDF50DA6FDE510A0D330EF324D96EE7
:101C5800020EF420DA6EDF50DB6F97D520EE05F028
:101C6800C551D926C651DA22020EDE18D8A40DD0E5
:101C780020EE06F0C551D926C651DA22090EDE1823
:101C8800D8B493EF09F0A7EF17F0000EDF6F050E39
:101C9800DF6501D00AD0D20EDF25D96EDA6A000ED0
:101CA800DA22280EDF6EDF2BF2D762C2D8F063C2C9
:101CB800D9F064C2DAF0E7EF13F020EE05F0C55171
:101CC800D926C651DA22020EDE18D8A437D020EE63
:101CD80006F0C551D926C651DA22030EDE18D8A45B
:101CE800A7EF17F020EE07F0C551D926C651DA2222
:101CF800DF500201656F000120EE08F0C551D926BA
:101D0800C651DA22DF500201666F000120EE09F0A9
:101D1800C551D926C651DA22DF500201676F65C264
:101D280032F3010E0301336F66C234F3010E356FCF
:101D380067C236F3010E376F93EF09F065C2D2F030
:101D480066C2D3F067C2D4F0EDEF09F020EE05F0DB
:101D5800C551D926C651DA22020EDE18D8A467D09A
:101D680020EE06F0C551D926C651DA22050EDE1836
:101D7800D8A4A7EF17F020EE07F0C551D926C65111
:101D8800DA22050EDF6409D020EE08F0C551D92605
:101D9800C651DA22120EDF6402D0020ECCD220EE37
:101DA80007F0C551D926C651DA22DF500201696F02
:101DB800000120EE08F0C551D926C651DA22DF50BD
:101DC80002016A6F000120EE09F0C551D926C651FB
:101DD800DA22DF5002016B6F000120EE0AF0C551D4
:101DE800D926C651DA22DF5002016C6F000120EEBD
:101DF8000BF0C551D926C651DA22DF5002016D6FAA
:101E080069C238F3010E0301396F6AC23AF3010E51
:101E18003B6F6BC23CF3010E3D6F6CC23EF3010E8B
:101E28003F6F6DC240F3010E416F93EF09F069C235
:101E3800D2F06AC2D3F06BC2D4F06CC2D5F06DC2D6
:101E4800D6F0050EE4D420EE05F0C551D926C651CA
:101E5800DA22020EDE18D8A46FD020EE06F0C551A3
:101E6800D926C651DA22070EDE18D8A4A7EF17F034
:101E780020EE07F0C551D926C651DA22DF500201FB
:101E8800826F000120EE08F0C551D926C651DA222A
:101E9800DF500201846F000120EE09F0C551D926F8
:101EA800C651DA22DF500201836F000120EE0AF0EA
:101EB800C551D926C651DA22DF500201856F0001CB
:101EC80020EE0BF0C551D926C651DA22DF500201A7
:101ED800876F000120EE0CF0C551D926C651DA22D1
:101EE800DF500201866F000120EE0DF0C551D926A2
:101EF800C651DA22DF500201886F82C242F3010E16
:101F08000301436F84C244F3010E456F83C246F355
:101F1800010E476F85C248F3010E496F87C24AF325
:101F2800010E4B6F86C24CF3010E4D6F88C24EF303
:101F3800010E4F6F93EF09F082C2D2F084C2D3F042
:101F480083C2D4F085C2D5F087C2D6F086C2D7F056
:101F580088C2D8F0F3EF14F020EE05F0C551D92669
:101F6800C651DA22020EDE18D8A429D020EE06F0D7
:101F7800C551D926C651DA22020EDE18D8A4A7EF19
:101F880017F020EE07F0C551D926C651DA22DF50E6
:101F98000101476F000120EE08F0C551D926C6514E
:101FA800DA22DF500101486F47C154F3010E0301E3
:101FB800556F48C156F3010E576F93EF09F047C1AB
:101FC800D2F048C1D3F091EF09F0C7C03DF020EE40
:101FD80002F0C551D926C651DA22DF5022EC47F06B
:101FE800A7EF17F020EE05F0C551D926C651DA2221
:101FF800020EDE18D8A43CD020EE06F0C551D92632
:10200800C651DA22020EDE18D8A4A7EF17F020EE88
:1020180007F0C551D926C651DA22DF50D8A402D01C
:102028007F0E07D020EE07F0C551D926C651DA2217
:10203800DF500201896F000E8C6F000120EE08F05E
:10204800C551D926C651DA22DF5002018A6F000E27
:102058008B6F000E8D6F8EEC55F089C262F3010E06
:102068000301636F8AC264F3010E656F93EF09F091
:1020780089C2D2F08AC2D3F091EF09F0010ED26F73
:10208800810E90EF09F0010ED26F030E010177194E
:10209800D8A404D00D0E0001D36FF5D0210E3F61F6
:1020A800FAD0000120EE07F0C551D926C651DA2230
:1020B800050EDE18D8B40ED020EE07F0C551D9268B
:1020C800C651DA22050EDF6023D0070E01013F1941
:1020D800D8A41ED0010E0001D36F4EC1D4F0020E59
:1020E80001014119D8A406D00E0E0001D36F4EC1CC
:1020F800D4F0D1D0030E4119D8B404D0040E41193C
:10210800D8A4C9D0A8EC4BF0050E01014E6FC3D07E
:10211800050E01014E19D8B406D0070E3F19D8B4E0
:1021280002D0050E4E6F050E4E19D8A4B4D000018A
:1021380020EE07F0C551D926C651DA22DE04D8A40C
:102148000DD0F2B902D0030E74D04FB405D0020EF0
:1021580060EC37F0010E5BD0080E6BD020EE07F074
:10216800C551D926C651DA22020EDE18D8A413D0DA
:10217800F2B502D0020E5DD001016105D8A402D0EB
:10218800100E49D04DB205D0040E60EC37F0020EA7
:102198003ED0070E40D020EE07F0C551D926C651D3
:1021A800DA22030EDE18D8A41ED0F2B302D0040E31
:1021B80040D001016805D8A402D00B0E2CD04C5099
:1021C800D8A402D00F0E27D0020E4419D8A402D0EA
:1021D800060E21D04FA202D0090E1DD0010E60ECD0
:1021E80037F0030E14D020EE07F0C551D926C6519A
:1021F800DA22040EDE18D8A410D0F2A7D8D701012D
:102208008751D8A407D0050E60EC37F0040E010101
:102218004E6F10D00A0E00010CD020EE07F0C55109
:10222800D926C651DA22060EDE18D8B4F2BB02D07F
:102238000C0ED36F050E01014E19D8B423D0040E2D
:10224800416F010E0001D36F01014E518009000159
:10225800D46F20EE03F0C551D926C651DA22360EC6
:10226800DE180CE10C0EDE18D8A408D020EE08F019
:10227800C551D926C651DA22DF5001D03C0E0101E2
:10228800346F09D0000120EE07F0C551D926C65198
:10229800DA22DF50D46F000120EE05F0C551D926AF
:1022A800C651DA22DE04D8B4EDEF09F093EF09F055
:1022B80020EE05F0C551D926C651DA22020EDE18E5
:1022C800D8A41DD020EE06F0C551D926C651DA2271
:1022D800DE04D8A4A7EF17F020EE07F0C551D926E1
:1022E800C651DA22DF5001014A6F010E0001CF6F9B
:1022F8004AC180F3010E0301816FA7EF17F0010EA9
:10230800D26F4AC1D3F091EF09F020EE05F0C55124
:10231800D926C651DA22020EDE18D8A40FD020EE34
:1023280007F0C551D926C651DA220B0EDE18D8A4FB
:1023380005D0020E04D0CF6FA7EF17F0010E0301EE
:10234800C26F01018551F00B0109856F93EF09F008
:1023580020EE05F0C551D926C651DA22040EDE1842
:10236800D8A484D020EE02F0C551D926C651DA226D
:10237800030EDE18D8A40DD0000E0301CD6FCD5189
:102388000B0DCE0EF324D96E030EF420DA6E010E77
:1023980044D020EE02F0C551D926C651DA220F0EDC
:1023A800DE18D8A40DD0010E0301CD6FCD510B0D51
:1023B800CE0EF324D96E030EF420DA6E020E2DD061
:1023C80020EE02F0C551D926C651DA22100EDE18C9
:1023D800D8A40DD0020E0301CD6FCD510B0DCE0E3A
:1023E800F324D96E030EF420DA6E030E16D020EE15
:1023F80002F0C551D926C651DA22110EDE18D8A42A
:102408000DD0030E0301CD6FCD510B0DCE0EF3246D
:10241800D96E030EF420DA6E040EDF6E000E000192
:10242800DF6F090EDF6502D0A7EF17F020EE07F087
:10243800C551D926C651DA220301CD510B0DC20E62
:102448000001C86F030EC96F0D0EC827000EC923FF
:10245800F350C827F450C923DF51C825E16E000E98
:10246800C921E26EDFCFE7FFDF2BDBD7000EDF6F7E
:102478000A0EDF6501D01BD0DF51C86FC96B060E8D
:10248800C827000EC923270EC825F66E120EC921CB
:10249800F76EF86A000EF822D20EDF25D96EDA6AD6
:1024A800000EDA220800F5CFDFFFDF2BE1D7000EA0
:1024B800D06F20EE03F0C551D926C651DA22DECFFF
:1024C8001CF0DDCF1DF0D20E1E6E000E1F6E20EE2A
:1024D80002F0C551D926C651DA22DF50206E040E0B
:1024E800216E0B0E226EC7C023F05DEC39F0A7EF0A
:1024F80017F020EE05F0C551D926C651DA22DE04C0
:10250800D8A4A7EF17F0000ED16F030ED16501D044
:102518004AD0D1510B0DCE0EF324D96E030EF42000
:10252800DA6EDF50D8B43CD0000EDF6F090EDF65DD
:1025380001D01ED0D1510B0DC20EC86F030EC96F4A
:102548000C0EC827000EC923F350C827F450C9231E
:10255800DF51C825D96E000EC921DA6ED20EDF25EB
:10256800E16EE26A000EE222DFCFE7FFDF2BDED763
:102578000C0E1D6E3D0E1C6ED20E1E6E000E1F6ED2
:1025880020EE02F0C551D926C651DA22DF50206E5E
:10259800040E216E0A0E226EC7C023F05DEC39F0DE
:1025A8000001D12BB2D7000ED26F010EDF6F090EDA
:1025B800DF6502D0A7EF17F0D1510B0DC20EC86F1F
:1025C800030EC96F0C0EC827000EC923F350C82785
:1025D800F450C923DF51C825D96E000EC921DA6E1F
:1025E800D20EDF25E16EE26A000EE222DFCFE7FFBE
:1025F8000C0E1D6E3D0E1C6ED20E1E6E000E1F6E52
:1026080020EE02F0C551D926C651DA22DF50206EDD
:10261800040E216E0A0E226EC7C023F05DEC39F05D
:102628000001DF2BC4D720EE03F0C551D926C651CF
:10263800DA22040EDE1808E1FE0EDE18D8A404D053
:10264800010ECF6F010E01D0110E0301C56F000EF0
:102658000F6ED00E0E6EE20E106EFFEC54F0000EF0
:102668000F6ED10E0E6E000120EE02F0C551D92674
:10267800C651DA22DF50106EFFEC54F0A7EF17F0C6
:10268800C5C03DF0C6C03EF0C7C03FF0D3EC4AF02D
:10269800A7EF17F020EE07F0C551D926C651DA2268
:1026A800DF50A3EC30F0A7EF17F020EE05F0C5518E
:1026B800D926C651DA22020EDE18D8A44CD020EE54
:1026C80007F0C551D926C651DA22DE04D8A414D0A1
:1026D80020EE08F0C551D926C651DA22DE04D8A466
:1026E8000BD0030E01013F19D8A403D0230E60ECD0
:1026F80037F0000E4A6E13D020EE08F0C551D926E7
:10270800C651DA22020EDE18D8A409D0230E010120
:102718003F19D8A4EED7030E60EC37F0EAD70001D2
:1027280020EE07F0C551D926C651DA22DE04D8A416
:1027380093EF09F0000EDF6F020EDF6502D093EF12
:1027480009F04B0EDF25D96EDA6A010EDA22020E85
:10275800DF6EDF2BF1D74A50D8B405D0010ED26F07
:10276800000E4A6E02D0020ED26F010189A302D078
:10277800010E01D0020E0001D36F010189A502D01C
:10278800010E01D0020E0001D46F010189A902D007
:10279800010E01D0020E0001D56F010189AB02D0F4
:1027A800010E01D0020E0001D66F010189AD02D0E1
:1027B800010E01D0020E0001D76F4BC1D8F04CC1F9
:1027C800D9F04DC1DAF0090E0BEF0CF020EE05F050
:1027D800C551D926C651DA22020EDE18D8A41FD058
:1027E80020EE06F0C551D926C651DA22DE04D8A457
:1027F800AAD320EE07F0C551D926C651DA22DF50F8
:102808004B6E4BC088F3010E0301896F010E000166
:10281800CF6F4B04D8A497D3010E4C6E94D3010EFE
:10282800D26F4BC0D3F091EF09F020EE05F0C551FF
:10283800D926C651DA22020EDE18D8A410D020EE0E
:1028480007F0C551D926C651DA22DF500101016FC0
:1028580001C18CF3010E03018D6F93EF09F0010E96
:10286800D26F01C1D3F091EF09F020EE05F0C55108
:10287800D926C651DA22020EDE18D8A448D020EE96
:1028880007F0C551D926C651DA22DF500101026F7F
:10289800000120EE08F0C551D926C651DA22DF50D2
:1028A8000101036F000120EE09F0C551D926C65178
:1028B800DA22DF500101046F000120EE0AF0C55151
:1028C800D926C651DA22DF500101056F000120EE3A
:1028D8000BF0C551D926C651DA22DF500101066F27
:1028E80002C18EF3010E03018F6F03C190F3010E35
:1028F800916F04C192F3010E936F05C194F3010E19
:10290800956F06C196F3010E976F93EF09F002C118
:10291800D2F003C1D3F004C1D4F005C1D5F006C18B
:10292800D6F025EF0FF020EE05F0C551D926C65197
:10293800DA22020EDE18D8B493EF09F0060ED26F31
:10294800060E90EF09F020EE05F0C551D926C651C4
:10295800DA22020EDE18D8A434D020EE0AF0C551CF
:10296800D926C651DA22DF500101076F000120EE97
:102978000BF0C551D926C651DA22DF500101086F84
:10298800000120EE0CF0C551D926C651DA22DF50DD
:102998000101196F640E166F000E126F000E116F91
:1029A800640E176F07C19AF3010E03019B6F08C1EC
:1029B8009CF3010E9D6F19C19EF3010E9F6F93EF5B
:1029C80009F00A0ED26F0A0ED36F0A0ED46F07C130
:1029D800D5F008C1D6F019C1D7F016C1D8F0070E46
:1029E8000BEF0CF020EE05F0C551D926C651DA22BE
:1029F800020EDE18D8A4A7D2020E01011B6F93EFB6
:102A080009F020EE05F0C551D926C651DA22020E8A
:102A1800DE18D8A410D020EE07F0C551D926C6512B
:102A2800DA22DF500101796F79C1A0F3010E0301A9
:102A3800A16F93EF09F0010ED26F79C1D3F091EF36
:102A480009F020EE05F0C551D926C651DA22020E4A
:102A5800DE18D8A41ED020EE07F0C551D926C651DD
:102A6800DA22DF5001014F6F000120EE08F0C55156
:102A7800D926C651DA22DF500101506F4FC1A2F3A7
:102A8800010E0301A36F50C1A4F3010EA56F93EFCC
:102A980009F04FC1D2F050C1D3F091EF09F020EE08
:102AA80005F0C551D926C651DA22020EDE18D8A47F
:102AB80018D020EE06F0C551D926C651DA22DE0418
:102AC800D8A441D220EE07F0C551D926C651DA2242
:102AD800DF500301CB6FCBC3A6F3010EA76F93EFB3
:102AE80009F0010ED26FCBC3D3F091EF09F020EEBD
:102AF80005F0C551D926C651DA22020EDE18D8A42F
:102B080019D020EE06F0C551D926C651DA22DE04C6
:102B1800D8A419D220EE07F0C551D926C651DA2219
:102B2800DF500101206F20C198F3010E0301996F56
:102B380093EF09F0010ED26F20C1D3F091EF09F0A5
:102B480020EE05F0C551D926C651DA22020EDE184C
:102B5800D8A419D020EE06F0C551D926C651DA22DC
:102B6800DE04D8A4F0D120EE07F0C551D926C6510D
:102B7800DA22DF500101546F54C1C0F3010E030182
:102B8800C16F93EF09F0010ED26F54C1D3F091EFEA
:102B980009F020EE05F0C551D926C651DA22DE0427
:102BA800D8A4D1D1000EDF6F050EDF6501D0CBD1DF
:102BB800670EDF25F66EF76A120EF722F86A000E26
:102BC800F822D20EDF25D96EDA6A000EDA22080062
:102BD800F5CFDFFF060ED06FDF2BE6D720EE07F02C
:102BE800C551D926C651DA22DF50496E4804D8A407
:102BF80015D020EE02F0C551D926C651DA22100EA2
:102C0800DE18D8A40BD020EE08F0C551D926C6513D
:102C1800DA22DE04D8A402D0030E07D020EE08F092
:102C2800C551D926C651DA22DF504A6E020E4B181A
:102C3800D8A408D020EE09F0C551D926C651DA2209
:102C4800DF5001D0010E4C6E20EE0AF0C551D92696
:102C5800C651DA22DF500101896F75D1A10E8FD0DC
:102C6800030E01013F19D8A423D0000120EE07F07C
:102C7800C551D926C651DA22DE04D8A419D0020ECD
:102C88000301C46F030EC36F000E0001F06F000E46
:102C980001012F6F260E3F6F010E0301CA6F77C126
:102CA8003DF001013F51B7EC51F075EC5AF04BD1B2
:102CB800000120EE07F0C551D926C651DA22020ECE
:102CC800DE18D8A440D1020E0101686F020E616FB0
:102CD80093EF09F020EE07F0C551D926C651DA2244
:102CE800DF500101526F070E3F19D8B42CD1280EBE
:102CF8003F19D8B428D152C151F125D1F2BD4FBEE8
:102D080022D120EE07F0C551D926C651DA22DF506C
:102D180001011B6F18D120EE07F0C551D926C65105
:102D2800DA22DF500101686F030E6819D8A40BD1AD
:102D38003FC140F1200E3F6F000E246F04D120EEFA
:102D480007F0C551D926C651DA22DF500101866F36
:102D5800020EC9EC3CF0F7D0000E0101536FF3D01E
:102D680020EE07F0C551D926C651DA22DF500301FB
:102D7800CC6FCCC3B6F3010EB76FE5D0150ED26F8A
:102D8800010E0BEF0CF020EE03F0C551D926C65109
:102D9800DA22DECFC8F0DDCFC9F0C951000AD8B4B5
:102DA80010D0010AD8B413D00D0AD8B431D0010A12
:102DB800D8B4B0D08D0AD8B4B2D07E0AD8B4B5D0C1
:102DC800DDD7C851130AD8B447EF10F0D7D7C85188
:102DD800010AD8B455D4A10AD8B442EF10F0760A43
:102DE800D8B4ADD70E0AD8B4F9D6010AD8B4B4D736
:102DF800030AD8B433D7040AD8B480D7010AD8B4A0
:102E080069D73F0AD8B487D7010AD8B4A9D7B6D7A3
:102E1800C851200AD8B44DEF09F0010AD8B497EF89
:102E280009F0030AD8B4EFEF09F0010AD8B424EF87
:102E38000AF0070AD8B46CEF0AF0030AD8B4CBEF4B
:102E48000BF00F0AD8B40EEF0CF0020AD8B413EF47
:102E58000CF0010AD8B492EF0CF0070AD8B492EF3C
:102E68000CF0010AD8B432EF0EF0030AD8B461EFBF
:102E78000EF0010AD8B4AAEF0EF01F0AD8B427EF53
:102E88000FF0020AD8B4B0EF0FF0010AD8B4E9EF96
:102E98000FF0070AD8B4F6EF0FF0020AD8B447EFDC
:102EA80010F0010AD8B45CEF11F00F0AD8B417EF8C
:102EB80013F0010AD8B459EF13F0030AD8B46CEF31
:102EC8000AF0070AD8B47DEF12F0030AD8B47ED40A
:102ED8007E0AD8B4AAD4010AD8B4C7D4030AD8B48D
:102EE80022D5010AD8B42FD5070AD8B47BD5010A50
:102EF800D8B487D5030AD8B4A4D5010AD8B4CFD595
:102F08000F0AD8B41DD6010AD8B4F1D5030AD8B42B
:102F180040D634D7C851030AD8B4A2D62FD7C8513F
:102F2800010AD8B44EEF13F029D7C851010AD8B412
:102F380089EF11F0030AD8B4ACEF11F0060AD8B43F
:102F480017EF13F01BD70001CF51D8B409D0CF0524
:102F5800D8A402D0060E01D0150ED26F010ED06F84
:102F6800D051D8B41ED020EE03F0C551D926C65191
:102F7800DA22DECF1CF0DDCF1DF0D20E1E6E000E61
:102F88001F6E20EE02F0C551D926C651DA22DF5055
:102F9800206E040E216ED0C022F0C7C023F05DEC75
:102FA80039F00301C505D8B404D0110EC519D8A449
:102FB8001200000EC9EC3CF08E988E94000E0E6E36
:102FC800090EEDEC35F0270E01013F6F0301C50531
:102FD800D8A41CD0010E0001D26FFE0E1D6E050E86
:102FE8001C6ED20E1E6E000E1F6E20EE02F0C55132
:102FF800D926C651DA22DF50206E060E216E010E48
:10300800226E000E236E5DEC39F021D0060E000111
:10301800D26F20EE03F0C551D926C651DA22DECF91
:103028001CF0DDCF1DF0D20E1E6E000E1F6E20EEBE
:1030380002F0C551D926C651DA22DF50206E040E9F
:10304800216E010E226E000E236E5DEC39F0020E29
:103058000301C56F020ECA6FCAC33DF001013F519B
:10306800B7EC51F0010E0101356F1200000E00019E
:10307800806F000E7D6F000E7F6F040E01011C191A
:10308800D8A40ED0030E3F19D8A40AD0290E3F6F3A
:10309800020E0E6E080EEDEC35F0010E01013D6FCB
:1030A800FFEC39F040EF1FF0000E496E12EC22F0F1
:1030B8001200000E496E000E4A6E020E01015119EF
:1030C800D8A42ED00001F2AD2BD0010137511E5DDE
:1030D800D8B026D037511327000E142337511127A3
:1030E800000E12231F51D8A405D0010E376F000E11
:1030F800386F0AD0000E376F000E0E6E080EEDEC1A
:1031080035F0010E01011D6F0551D8A405070551C1
:10311800D8A406D0000E386F010E396F030E1D6F4C
:1031280001012151D8A40FD0140E1E6103D01E51E5
:103138000F0F08D01E0E1E6103D01E51190F02D0AA
:103148001E51230F216F3D51215DD8A099EC50F0FD
:1031580001011D05D8B4120051BC12000551D8B4A4
:103168001200010E386F010E376F020E0E6E080E38
:10317800EDEC35F01200000E496E000E4A6EB4EC0C
:103188003BF01200000E496E000E4A6E230E01013C
:103198003D651200000E0E6E080EEDEC35F0000EC7
:1031A80001013D6F010E1D6F010E396F030E3F6F58
:1031B800050E1C6F1CC1B4F3010E0301B56F12009C
:1031C80001013D51D8A408D0010E3D6F020E0E6ECC
:1031D800080EEDEC35F012000A0E3D6510D051AC2A
:1031E8000ED0000E0E6E080EEDEC35F0010E0E6ED0
:1031F8000A0EEDEC35F0010E01013D6F1200280EAC
:103208003D651200000E0E6E0A0EEDEC35F0000E54
:1032180001013D6F09C122F122C1BEF3010E030174
:10322800BF6F000E0101236F030E60EC37F0000E34
:103238004A6E000E496E1200000E4A6E000E496E6C
:10324800F051D8A41200020E0101426F140E0001C1
:10325800EF6F0201D4510F0B2009D46F010E3BEC24
:103268005AF01200000E4A6E000E496EF051D8A4B2
:103278001200020E0101426F500E0001EF6F0201B1
:10328800D4510F0B2009D46F010E3BEC5AF01200F9
:103298000301C905D8A4CCD0C805D8A413D000010F
:1032A800F051D8A419D0020E0101426F320E00016C
:1032B800EF6F0201D4510F0B2009D46F010E3BECC4
:1032C8005AF00AD00001F005D8A406D0020E010178
:1032D800426F000E3BEC5AF04A50D8A466D04950D1
:1032E800D8B43CD0030E4918D8B404D0050E4918F8
:1032F800D8A414D04FB408D0030E4918D8A404D0C9
:10330800020E60EC37F027D04FB225D001014405FA
:10331800D8A421D0010E60EC37F01DD0020E491858
:10332800D8B404D0040E4918D8A415D04DB208D08A
:10333800020E4918D8A404D0040E60EC37F00BD064
:1033480001018751D8A407D0020E4918D8A403D088
:10335800050E60EC37F0000E496E59D0020E0101DF
:103368001B19D8B44FBE53D050B851D03FC140F10B
:10337800240E3F6F080E426F1E0E0001EF6F020110
:10338800D4510F0B2009D46F000E486E000E0101B6
:10339800246F030E1B6F030E0301CA6FCAC33DF0EF
:1033A80001013F51B7EC51F032D04A50D8B4D3D7CD
:1033B8002A0E4A18D8A428D03E0E4D1400017B6F5F
:1033C800000E4E147C6F7B517C11D8A41DD0010EC9
:1033D800486E210E60EC37F00201D4514818F00B0A
:1033E8004818D46FD4510F0B4009D46F050E010152
:1033F800426F1E0E0001EF6F010E3BEC5AF0010EFA
:103408000101336F000E246F000E4A6EA4D7020E1E
:1034180001014519D8A403D0000E74EC57F001013E
:103428002305D8A42CD02B0E3F6F000E3D6F27D05C
:103438000001F051D8A415D0020E0101426F02011B
:10344800D4510F0B6009D46FD4510301C919F00B83
:10345800C9190201D46F140E0001EF6F010E3BEC85
:103468005AF00A0E01012419D8A405D0000E0E6ED8
:10347800040EEDEC35F0000E4A6E000E496E1E0E7D
:103488000101246502D0000E246F040E3665120077
:10349800040E0E6E070EEDEC35F0000E0101366FCE
:1034A800120001016251D8A40BD00001F005D8A484
:1034B80020D0050E0101426F000E3BEC5AF019D0E6
:1034C8000001F051D8A415D0050E0101426F020188
:1034D800D4510F0B6009D46FD45101016219F00B5C
:1034E80062190201D46F140E0001EF6F010E3BEC5C
:1034F8005AF04A50D8A43FD001014151D8A43BD03A
:103508004950D8B43AD0030E4918D8B404D0050E9F
:103518004918D8A41BD04FB20BD04405D8A408D062
:10352800050E4918D8A404D0010E60EC37F020D05D
:103538004FB408D0050E4918D8A404D0020E60EC88
:1035480037F016D0030E60EC37F012D0020E49188F
:10355800D8B404D0040E4918D8A40AD08751D8A4E6
:1035680007D0020E4918D8A403D0050E60EC37F036
:10357800000E496E02D083EC33F0C2EC59F0120011
:10358800F051D8A429D0150E02017B610ED0D45178
:103598000F0B2009D46F040E0101426F1E0E0001AB
:1035A800EF6F010E3BEC5AF025D0020E010177199E
:1035B800D8A40FD00201D4510F0B2009D46F040EE8
:1035C8000101426F280E0001EF6F010E3BEC5AF02B
:1035D80011D0040E426F0ED0140E02017B650AD082
:1035E800020E01017719D8B405D0040E426F000EFF
:1035F8003BEC5AF0020E01014519D8A40CD02B510E
:10360800485DD8B003D0000E74EC57F0000E4A6E37
:10361800000E496E46D04151D8A42FD04A50D8A4A4
:103628002CD0030E7719D8B4F3D74950D8B4F0D7B3
:10363800050E4918D8A413D04FB207D04405D8A412
:1036480004D0010E60EC37F0E3D74FB404D0020E7B
:1036580060EC37F0DDD7030E60EC37F0D9D7030EF6
:103668004918D8A4D5D74DB204D0040E60EC37F071
:10367800CFD7030E60EC37F0CBD77705D8A4C6D7E1
:103688004A50D8A404D0040E4119D8A4C1D7030EB7
:103698004A18D8A403D062EC4BF0B8D783EC33F0C7
:1036A800B7D701017705D8B468D762EC4BF065D776
:1036B8000A0E0201446112D00001F051D8A40ED0C4
:1036C8000201D4510F0B2009D46F060E0101426F7D
:1036D8001E0E0001EF6F010E3BEC5AF00101415143
:1036E800D8A449D74A50D8A446D74950D8B445D7C2
:1036F800030E4918D8B404D0050E4918D8A409D027
:103708004FB236D74405D8A433D7010E60EC37F052
:103718002FD7020E4918D8B404D0040E4918D8A4DB
:1037280027D78751D8A408D0040E4918D8A404D0A4
:10373800050E60EC37F01CD74DB208D0040E4918BE
:10374800D8A404D0040E60EC37F012D7030E60EC56
:1037580037F00ED701014405D8A4CCD06951D8A4BC
:103768003BD06805D8A413D00001F051D8A44DD09F
:10377800030E0101426F320E0001EF6F0201D451B6
:103788000F0B3009D46F010E3BEC5AF03ED04C5071
:10379800D8A413D00001F051D8A437D0030E0101EA
:1037A800426F0201D4510F0B2009D46F1E0E000185
:1037B800EF6F010E3BEC5AF028D00001F005D8A4B9
:1037C80024D0000EF06F000E3BEC5AF0030E0101FE
:1037D800426F010E436F19D00001F051D8A415D0E3
:1037E800030E0101426F0201D4510F0B6009D46F1F
:1037F800D45101016919F00B69190201D46F140E33
:103808000001EF6F010E3BEC5AF0020E0101451961
:10381800D8A40CD02B51475DD8B003D0000E74EC5F
:1038280057F0000E496E000E4A6EA7D64151D8A433
:1038380029D04A50D8A426D04950D8B49ED6020ED2
:103848004918D8A40AD04FB404D0020E60EC37F05F
:103858008FD6030E60EC37F08BD6040E4918D8A427
:1038680087D68751D8A404D0050E60EC37F080D6EF
:103878004DB204D0040E60EC37F07AD6030E60EC3B
:1038880037F076D6020E6819D8A408D04C04D8B4FC
:1038980072D6000E4A6E000E416F6FD6040E4119A3
:1038A800D8A405D0000E416F3C0E346F66D64A503E
:1038B800D8B463D6050E4A18D8A419D03FC140F130
:1038C800010E336F200E3F6F030E686F000E246FDA
:1038D8000201D4510F0B2009D46F030E0101426F6E
:1038E800320E0001EF6F010E3BEC5AF09CD7010E2F
:1038F800246F99D7030E60EC37F01200000E496E62
:10390800010137511E5DD8B008D0000E0E6E080EAA
:10391800EDEC35F0060E01011D6F2B51205DD8A08E
:1039280007D0050E4019D8A42BD00A0E2B6528D035
:10393800000E0E6E4651EDEC35F0050E01014019F2
:10394800D8A407D08A98000E556F255102016F2719
:1039580005D026C177F04051E3EC4DF0000E01018F
:10396800256F000E266F3751D8B405D0000E0E6EA5
:10397800080EEDEC35F0000E01012B6F010E3C6FC7
:103988000A0E3C651200000E3C6F3751D8B413D0B4
:10399800280E3F6F060E1D19D8B405D0020E0E6E04
:1039A800080EEDEC35F0010E01013D6F000E1D6FA4
:1039B800010E386F120099EC50F01200000E496E9B
:1039C800000E0101246F3C0E26650CD0050E40192F
:1039D800D8B405D026C177F04051E3EC4DF0000E85
:1039E8000101266F020E5119D8A44FD00001F2AD83
:1039F8004CD0010137511E5DD8B02FD03751132755
:103A0800000E142337511127000E12231F51D8A47A
:103A180005D0010E376F000E386F07D0000E376FD4
:103A2800000E0E6E080EEDEC35F001010551D8A41C
:103A380005070551D8A40FD0000E376F000E0E6E83
:103A4800080EEDEC35F0030E01011D6F010E396F04
:103A5800000E386F02D0010E1D6F280E386515D084
:103A68001D05D8B412D01F51D8B40FD00551D8B401
:103A78000AD0010E386F010E376F020E0E6E080E57
:103A8800EDEC35F002D0000E386F320E4A18D8B47B
:103A980006D0010189A703D0010E53650CD0020E90
:103AA80001014119D8A407D0010E0001806F000E52
:103AB8000101536F30D0030E4119D8B407D0040E5A
:103AC8004119D8B403D04105D8A425D04A50D8B458
:103AD8000BD0010E0001806F51B002D051AC1BD049
:103AE800020E01011D6F17D04105D8A408D0255139
:103AF800505DD8B004D0010E0001806F0CD0255164
:103B08004A5DD8A0F8D7040E4119D8A404D025518D
:103B1800345DD8A0F0D7020E01014419D8B403D0FF
:103B28004C50D8A406D04005D8A403D0010E0001FB
:103B3800806F00018005D8B4A8EC4BF0050E010198
:103B48004019D8A412005A51D8A421D0040E5719EC
:103B5800D8A417D0010E5A6F030E5B6102D05B2BFD
:103B680016D05C51D8A413D0010E5C6F000E3E6EC7
:103B78000E0E3D6E170E3F6E000E406EABEC41F020
:103B880006D0030E5719D8A402D0000E5B6F0201AD
:103B98006F510101252500017E6F01015705D8A449
:103BA8000AD03051D8A407D04105D8A402D00B0EB2
:103BB80001D0010E306F1C0E00017E6107D001019B
:103BC8005705D8A41200090E3065120001015705E7
:103BD800D8A402D0000E5C6F3751D8B404D0000EC0
:103BE800376F0DEC53F001013B51D8B40ED0320EB3
:103BF8003B6102D0020E01D0000E1D6F000E3B6F1C
:103C0800000E0E6E0A0EEDEC35F0020E0101791968
:103C1800D8A402D0040E776FA8EC4BF0020E010175
:103C28007919D8B462EC4BF0000E0101306F120024
:103C38004950D8B402D0000E496E030E010168192C
:103C4800D8A41ED0010E336F000E246F010E0E6E25
:103C5800000EEDEC35F00201D4510F0B2009D46FA2
:103C6800030E0101426F320E0001EF6F010E3BECB3
:103C78005AF0040E0101686F010E00017F6F91D0A8
:103C8800040E6819D8A428D0780E336514D0000E15
:103C98000E6E4651EDEC35F0010E0101336F050E45
:103CA800686F000E426F000E3BEC5AF08D8A010ED1
:103CB80000017F6F0CD0010E336509D0000E466FEE
:103CC800030E4E6F010E0E6E4651EDEC35F0000EF0
:103CD8004A6E000E496E65D04A50D8A408D0060E28
:103CE8006819D8B404D0070E6819D8A42DD0030ECB
:103CF8004A18D8B404D0060E6819D8A423D0020EE6
:103D0800686F000E0F6E290E0E6E68C110F0FFEC82
:103D180054F0010E0101406F40C13FF1010E60EC0B
:103D280037F0010E0101246F000E336F4F96020E1B
:103D3800616F4E9661C150F3010E0301516F010E80
:103D480000017F6F000E4A6E000E496E3D0E0101A4
:103D5800336104D0070E6819D8A423D0000E336F3E
:103D6800010E686F0201D4510F0B3009D46F030E96
:103D78000101426F320E0001EF6F010E3BEC5AF069
:103D8800010E0101406F40C13FF1010E246F000E8A
:103D98004A6E010E60EC37F03C0E0101336501D02C
:103DA8006BD700017F05D8A4120068C1CAF368C1A7
:103DB8003DF001013F51B7EC51F012004A50D8B420
:103DC80019D04A04D8B403D0030E4A6403D0010EB4
:103DD80001014B6F020E4A18D8A403D0010E01014D
:103DE8004C6F030E4A18D8A403D0010E01014D6F81
:103DF800000E4A6E000E496E0F0E01012465120076
:103E0800000E0001816F020E816501D00AD04B0EB1
:103E18008125D96EDA6A010EDA22020EDF6E812B55
:103E2800F2D7000E0101246F030E60EC37F0120088
:103E3800F051D8A40ED0040E0101426F320E0001D9
:103E4800EF6F0201D4510F0B2009D46F010E3BEC28
:103E58005AF0000E4A6E000E0101246F000E496EE2
:103E68000301C905D8A403D05CEC25F0120023ECAB
:103E780055F039EC52F0120001013F5100017B6FFF
:103E88007C6B7C51000AD8A412007B51010AD8B47B
:103E980061D4030AD8B40CD4010AD8B44CEF19F091
:103EA800070AD8B455EF1AF0010AD8B4C4EF1AF0CB
:103EB800020AD8B483D5270AD8B4BAD6010AD8B426
:103EC80058EF18F0030AD8B4B3D7010AD8B476D794
:103ED800070AD8B4BFEF18F0020AD8B420EF19F0D7
:103EE800010AD8B436EF19F00F0AD8B45DEF18F00C
:103EF800010AD8B4C6EF18F0030AD8B4FFD4010AEF
:103F0800D8A41200E4EF18F0000E00017A6F8D8C2F
:103F18008D9A010188A744D08105D8B404D0010E38
:103F2800816F000E826F010E0FEC49F0000E1E6EBD
:103F3800040EBFEC48F000017B6F030E7B19D8B468
:103F48001ED00101822B0F0E8219D8A417D1000EA2
:103F5800826F7BC079F0000179470201D8510001D6
:103F68007919F90B79190201D86F4F84010E0001F4
:103F78007A6F000E0E6E010EEDEC35F0FFD0000EDC
:103F88000101826F7BC079F0000179470201D851A5
:103F980000017919F90B79190201D86F4F94EED005
:103FA80088A54DD0020E8119D8B404D0020E816FB5
:103FB800000E826F020E0FEC49F0000E1E6E040E0A
:103FC800BFEC48F000017B6F030E7B19D8B41FD0FB
:103FD8000101822B0F0E8219D8A4D0D0000E826F57
:103FE8007BC079F00001793B79470201D951000182
:103FF80079199F0B79190201D96F4D82010E0001C1
:104008007A6F000E0E6E020EEDEC35F0B7D0000E92
:104018000101826F7BC079F00001793B7947020189
:10402800D951000179199F0B79190201D96F4D9265
:1040380001012D51D8B4A2D0010E2D6F9FD088A9AF
:104048004DD0030E8119D8B404D0030E816F000E31
:10405800826F030E0FEC49F0000E1E6E040EBFECCB
:1040680048F000017B6F030E7B19D8B422D0010100
:10407800822B0F0E8219D8A481D0000E826F7BC0CC
:1040880079F000017947794779470201D851000151
:104098007919E70B79190201D86F4D8A01018781D7
:1040A800010E00017A6F000E0E6E030EEDEC35F076
:1040B80065D0000E0101826F7BC079F0000179475D
:1040C800794779470201D85100017919E70B791925
:1040D8000201D86F4D9A0101879150D088A34ED024
:1040E8000201B151D8B404D0000EB16F000EB36F05
:1040F800000E0FEC49F0000E1E6E040EBFEC48F0E7
:1041080000017B6F030E7B19D8B420D00201B32BBA
:104118000F0EB319D8A432D0000EB36F7BC079F05C
:1041280000017947794779470201D9510001791986
:10413800E70B79190201D96F4F82010E00017A6FDE
:10414800000E0E6E000EEDEC35F018D0000E0201D8
:10415800B36F7BC079F0000179477947794702014D
:10416800D95100017919E70B79190201D96F4F92DA
:1041780001012C51D8B402D0010E2C6F51AC49D09A
:104188008D8A8D9C080E0201B019D8B404D0080E8F
:10419800B06F000EB26F080E0FEC49F0130E1E6ED2
:1041A800050EBFEC48F000017B6F030E7B19D8B4F5
:1041B8001FD00201B22B0A0EB219D8A42AD0000EC1
:1041C800B26F7BC079F00001793B79470201D65183
:1041D800000179199F0B79190201D66F4F8E010ED4
:1041E80000017A6F000E0E6E080EEDEC35F011D05E
:1041F800000E0201B26F7BC079F00001793B79476C
:104208000201D651000179199F0B79190201D66F65
:104218004F9E8D8C8D9A010188AB4CD0060E020101
:10422800B119D8B404D0060EB16F000EB36F060EE4
:104238000FEC49F0120E1E6E040EBFEC48F00001A0
:104248007B6F030E7B19D8B421D00201B32B0A0E61
:10425800B319D8A4D3D0000EB36F7BC079F0000196
:10426800793B79470201D851000179199F0B7919D7
:104278000201D86F4D8601018787000E0E6E060E6B
:10428800EDEC35F0020E00017A6FB8D0000E020195
:10429800B36F7BC079F00001793B79470201D851AF
:1042A800000179199F0B79190201D86F4D96010108
:1042B8008797A4D051A652D0050E0201B119D8B4DF
:1042C80004D0050EB16F000EB36F050E0FEC49F068
:1042D800000E1E6E040EBFEC48F000017B6F030E4B
:1042E8007B19D8B427D00201B32B0A0EB319D8A46E
:1042F80035D0000EB36F7BC079F00001794779475C
:1043080079470201DA5100017919E70B791902019D
:10431800DA6F4D8401018783000E0E6E050EEDECF9
:1043280035F0000E0E6E040EEDEC35F0020E0001B5
:104338007A6F14D0000E0201B36F7BC079F00001D0
:104348007947794779470201DA5100017919E70B72
:1043580079190201DA6F4D9401018793010188AD43
:104368004DD0040E8119D8B404D0040E816F000E0C
:10437800826F040E0FEC49F0000E1E6E040EBFECA7
:1043880048F000017B6F030E7B19D8B425D00101DA
:10439800822B0A0E8219D8A431D0000E826F7BC0FE
:1043A80079F0000179470201D75100017919F90B19
:1043B80079190201D76F4D8801018785020E000126
:1043C8007A6F000E0E6E050EEDEC35F0000E0E6ED7
:1043D800040EEDEC35F012D0000E0101826F7BC0A7
:1043E80079F0000179470201D75100017919F90BD9
:1043F80079190201D76F4D980101879500017A0557
:10440800D8A403D01BEC4BF01200020E7A19D8A4E2
:10441800120023EC55F014EC5BF01200000E416E14
:104428004804D8A436D0030E4A18D8A419D0010ECF
:104438000E6E020EEDEC35F0050E0101426F020E14
:10444800486E0201D4514818F00B4818D46F010E79
:104458000101436F010E416E010E336F0201AB8102
:104468000A0E010133610BD0030E4A18D8B40ED0DE
:104478004A50D8B40BD0320E4A18D8B407D0000E20
:10448800336F000E486E030E60EC37F0000E4A6E74
:1044980049D1020E4818D8A426D03B0E0101336535
:1044A80041D1000E0E6E020EEDEC35F0010E0E6ECF
:1044B800050EEDEC35F0010E0E6E040EEDEC35F048
:1044C800040E0101426F010E436F030E486E020194
:1044D800D4514818F00B4818D46F010E0101336FFE
:1044E800010E416E1FD1030E4818D8A424D01D0E0A
:1044F8000101336517D1000E0E6E040EEDEC35F098
:10450800010E0E6E030EEDEC35F0010E0E6E050E6B
:10451800EDEC35F0040E0101426F010E436F040EFD
:10452800486E0201D4514818F00B4818D46F010E98
:104538000101336FF7D0040E4818D8A41AD00B0E17
:1045480001013365EFD0000E0E6E030EEDEC35F071
:10455800000E0E6E050EEDEC35F0050E486E020EDF
:104568000101426F010E436F0201D4510F0B500934
:10457800B3D7050E4818D8A417D0590E01013365D2
:10458800D1D0060E486E0201D4510F0B4009D46FEA
:10459800D4514818F00B4818D46F060E0101426F29
:1045A800010E436F000E9BD7060E4818D8A40FD0F3
:1045B8004A04D8A4B7D0010E0E6E020EEDEC35F009
:1045C800050E0101426F010E436F070E7FD7070EDC
:1045D8004818D8A41AD0950E01013365A3D0000E4F
:1045E8000E6E020EEDEC35F0010E0E6E040EEDECC3
:1045F80035F0010E0E6E050EEDEC35F0040E0101DE
:10460800426F010E436F080E61D7080E4818D8A4F0
:104618001AD0590E0101336585D0000E0E6E040EB6
:10462800EDEC35F0010E0E6E030EEDEC35F0010EDB
:104638000E6E050EEDEC35F0040E0101426F010E11
:10464800436F0C0E6DD70C0E4818D8A414D00E0E5C
:104658000101336567D0000E0E6E050EEDEC35F0E6
:10466800010E0E6E030EEDEC35F0010E0101336FF5
:104678000D0E486E57D00D0E4818D8A417D0040E4A
:10468800010133654FD0010E0E6E030EEDEC35F0CF
:10469800000E0101336F0B0E486E010E0E6E060EF2
:1046A800EDEC35F0010E0101296F3CD00B0E4818D6
:1046B800D8A416D0040E0101296534D0000E0E6E60
:1046C800060EEDEC35F0000E0101296F090E486E5B
:1046D800010E336F010E0E6E030EEDEC35F022D095
:1046E800090E4818D8A41ED00A0E010133650FD050
:1046F800000E336F46EC58F0030E01013F6F030EB6
:1047080060EC37F0000E486E0201AB910BD0070E3B
:10471800336508D088A906D0000E0E6E030EEDECA6
:1047280035F0DED64104D8A408D048C0CAF3CAC3BD
:104738003DF001013F51B7EC51F0030E4A18D8A4DF
:1047480021D0000E0101336F000E0E6E030EEDEC4A
:1047580035F0000E0E6E050EEDEC35F0000E0E6E07
:10476800020EEDEC35F0090E4818D8B446EC58F0B6
:10477800030E01013F6F030E60EC37F0000E486E28
:104788000201AB91000E4A6E12000001ED6F0001AC
:10479800ED51D8A41DD0E0C0D9FFE1C0DAFFDF5049
:1047A800D8A416D0E0C0D9FFE1C0DAFF010EDF6E51
:1047B80020EE05F0E051D926E151DA22000EDF6E35
:1047C80020EE03F0E051D926E151DA220B0EDF6E1C
:1047D800E0C0D9FFE1C0DAFFDE04D8A4BCD020EEE7
:1047E80005F0E051D926E151DA22DE04D8A414D02C
:1047F800ED51D8B403D0ED29D8A40ED0E0C0D9FF2C
:10480800E1C0DAFF000EDF6E20EE05F0E051D92698
:10481800E151DA22000EDF6E20EE05F0E051D926D4
:10482800E151DA22060EDE18D8A41DD00C0EED6177
:104838000CD0ED51D8B409D020EE03F0E051D926C0
:10484800E151DA22ED51090F0DD0E0C0D9FFE1C0E6
:10485800DAFF000EDF6E20EE05F0E051D926E151B7
:10486800DA22000EDF6E20EE03F0E051D926E15186
:10487800DA2210EE05F0E051E126E151E222DE50A5
:10488800E65CD8B041D020EE01F0E051D926E151E4
:10489800DA22DF50D8A438D020EE05F0E051D9262E
:1048A800E151DA22DF50E56FE551E225D96E000EBD
:1048B800E321DA6EEDC0DFFF20EE05F0E051D926E6
:1048C800E151DA22DF2AED29D8A41ED020EE03F028
:1048D800E051D926E151DA2210EE05F0E051E12647
:1048E800E151E222DE50E618D8A40ED020EE02F004
:1048F800E051D926E151DA22010EDF6EE0C0D9FF7E
:10490800E1C0DAFF000EDF6E20EE03F0E051D92699
:10491800E151DA2210EE05F0E051E126E151E22200
:10492800DE50E65CD8B009D020EE05F0E051D9267B
:10493800E151DA22130EDF640ED0E0C0D9FFE1C0E6
:10494800DAFF000EDF6E20EE05F0E051D926E151C6
:10495800DA22000EDF6E20EE02F0E051D926E15196
:10496800DA22DE04D8A4120020EE01F0E251D926A2
:10497800E351DA22DE04D8B40AD020EE01F0E25185
:10498800D926E351DA22FE0EDE18D8A487D0E2C079
:104998000EF0E3C00FF020EE03F0E051D926E1510C
:1049A800DA22DF50106E00EC50F00001EB6F20EEC1
:1049B80003F0E051D926E151DA22DF50E56FE551E5
:1049C800E225E66F000EE321E76FFE0EE625D96EBD
:1049D800FF0EE721DA6EEB51DE18D8A43FD020EEA7
:1049E80003F0E251D926E351DA22330EDE1804E14E
:1049F8000C0EDE18D8B40ED020EE04F0E051D92603
:104A0800E151DA22010EDF6E000E01012F6F8C8258
:104A18003CEC59F0000120EE05F0E251D926E351B3
:104A2800DA22040EDE18D8B409D0E2C0C5F0E3C01B
:104A3800C6F0E4C0C7F037EC09F030D020EE03F040
:104A4800E251D926E351DA22D90EDE1827E1DE0435
:104A5800D8A424D0000E0101536F20D0150EE96FA1
:104A680020EE03F0E251D926E351DA22DECF1CF022
:104A7800DDCF1DF0E90E1E6E000E1F6E20EE02F057
:104A8800E251D926E351DA22DF50206E040E216E5E
:104A9800010E226EE4C023F05DEC39F0000120EE37
:104AA80002F0E051D926E151DA22000EDF6E120041
:104AB80001017605D8A410D08D9A020E766F010EEA
:104AC8000E6E040EEDEC35F0030E0101556F010E6C
:104AD800286F000E586F1200020E7619D8A42ED037
:104AE800020E28651200020E5719D8A40DD0010E27
:104AF800286F050E766F010E586F000E576F000E67
:104B0800566F000E3C6F1200030E28651200010E4E
:104B18000E6E040EEDEC35F0000E01013C6F010E37
:104B2800556F010E0E6E050EEDEC35F0010E01010C
:104B3800286F000E306F030E766F1200030E761981
:104B4800D8A492D00201BC05D8B481A005D081A216
:104B580003D0010E0101586F01015851D8A435D076
:104B6800020E5719D8A422D051A618D0000E576F9C
:104B7800000E566F28C1BFF2000E0E6E050EEDEC4A
:104B880035F00201BE2B060EBE6504D0010E0101F0
:104B9800586F1BD0010E0101286F17D0030E28652E
:104BA80014D0010E586FBFC228F10FD051B60DD0E6
:104BB800040E286102D081B008D081B006D0010E61
:104BC8000E6E050EEDEC35F0EED70101285102010D
:104BD800665DD8A004D001015805D8A412000101CF
:104BE80028510201665DD8B01AD001015851D8A4E5
:104BF80016D00201BC51D8A412D0BD2B030EBD198A
:104C0800D8A410D0000EBD6F000E3E6E030E3D6E90
:104C1800010E3F6E800E406EABEC41F003D0000EEB
:104C28000201BD6F000E0101306F000E0201BF6F5F
:104C3800000EBE6F000E0E6E050EEDEC35F028C1AD
:104C480077F0050EE3EC4DF0010E0101286F010E1F
:104C58000E6E040EEDEC35F0050E0101766F000EB8
:104C6800576F000E566F1200050E7619D8A41FD084
:104C7800060E28651200000E0E6E040EEDEC35F0DF
:104C8800020E02018219D8A403D0010E01012A6F75
:104C9800010E0E6E060EEDEC35F0010E0101786F77
:104CA800000E286F010E296F040E766F1200040E95
:104CB8007619D8A46BD06A0E02016E25D96EDA6A0D
:104CC800020EDA2201012951DE5CD8B02DD0000E87
:104CD8000E6E060EEDEC35F06A0E02016E25D96EE9
:104CE800DA6A020EDA22DF50F6EC49F00201BC5112
:104CF800D8A412D001015805D8A40ED02851D8A4A0
:104D08001200010E556F000E576F000E566F010E00
:104D1800286F080E766F120023EC55F0000E020182
:104D2800BC6F14EC5BF01200020E02018219D8A4C9
:104D3800120001017805D8A414D02A510201845D1B
:104D4800D8B00FD001012A51F6EC49F0000E01014C
:104D5800786F010E2A6F000E0E6E060EEDEC35F020
:104D6800120001017851D8A412002A510201875D6E
:104D7800D8B01200010E0101786F010E0E6E060EFA
:104D8800EDEC35F0010E01012A6F1200080E7619BC
:104D9800D8A41200030E28651200000E286F020E18
:104DA8005719D8B4B9D7010E766F010E0201BC6F3E
:104DB8001200000E0401FC6F090EF16F000EFF6F68
:104DC800040EFB6F8D8C8D9A8AD08FB802D08F8895
:104DD80001D08F98080E0401FF19D8B404D0070E2B
:104DE800FF19D8A404D08D8A8D9C050E03D08D8C14
:104DF8008D9A040EFB6FFF516EEC48F0080E04010B
:104E0800FF19D8A40BD0030E01019B6F0401FF51B9
:104E1800AAEC36F0130E0401FC6F0FD0060EFF1932
:104E2800D8A402D0120E01D0000EFC6F010E0101B1
:104E38009B6F0401FF51AAEC36F0000E0401FE6FCF
:104E48000B0E01019C6FB80E9B6F9BEC5AF0FCC4D3
:104E5800ABF10401FB5176EC47F00101E96FF20E6A
:104E68000401FF25D96EDA6A040EDA22E9C1DFFFF0
:104E7800080EFF19D8A40BD080A807D0030EFA1982
:104E8800D8A403D00001F28D02D00001F29DF20EE9
:104E98000401FF25D96EDA6A040EDA22030EDE1841
:104EA800D8B404D0FE2B1D0EFE65CAD7070EFF1915
:104EB800D8B407D0000E01019B6F0401FF51AAEC82
:104EC80036F08FB802D08F8801D08F980B0E010171
:104ED8009C6FB80E9B6F9BEC5AF00401FF2BF151AD
:104EE800FF5DD8A072D78D8A8D8C000E0101496FA5
:104EF800F2C4E9F1E947E947E9470201D95101015B
:104F0800E919E70BE9190201D96FF3C4E9F10101C5
:104F1800E9470201D8510101E919F90BE919020120
:104F2800D86FF9C4E9F10101E947E947E947020106
:104F3800D7510101E919E70BE9190201D76FF7C445
:104F4800E9F10101E947E947E9470201DA510101BD
:104F5800E919E70BE9190201DA6FF4C4E9F1010173
:104F6800E93BE9470201D9510101E9199F0BE91908
:104F78000201D96FF8C4E9F10101E93BE9470201EF
:104F8800D8510101E9199F0BE9190201D86FF5C43D
:104F9800E9F10101E947E947E9470201D85101016F
:104FA800E919E70BE9190201D86FF6C4E9F1010123
:104FB800E9470201D7510101E919F90BE919020181
:104FC800D76FFAC4E9F10101E93BE9470201D6517B
:104FD8000101E9199F0BE9190201D66FD831030BBA
:104FE800030AD8A402D0010E07D0D939E832030B3E
:104FF800030AD8A403D0020E0101496F6EC2E9F179
:105008000101E947E947E9470201D6510101E919D8
:10501800E70BE9190201D66FD731E832E832030B02
:10502800030AD8B415D0000E01019B6F070EAAEC35
:1050380036F0020E0301C96F5086000E0101CB6FD6
:105048000E0ECA6F1B0ECC6FF9C4CDF13FEC41F0C8
:10505800020E0301CB19D8A425D0000E0401FE6F5F
:10506800000EFD6F80B00DD0FE2B070E01019C6F66
:10507800D00E9B6F9BEC5AF00401FD2B050EFD65CD
:10508800F1D78FB802D08F8801D08F98060E04010F
:10509800FE19D8A407D00301C905D8A402D0030E6D
:1050A800C96F50840301C905D8B41200E3EC51F06C
:1050B8001200000E0601F36F000EF26F000E0101E0
:1050C8009C6FD30E9B6F87EC5BF00601F16F1A0E95
:1050D800F119D8A434D1000EF56F900EF525D96ECC
:1050E800DA6A060EDA22F2C69BF1F3C69CF187EC67
:1050F8005BF0DF6E0601F24BF32BF52B600EF565C6
:10510800ECD790C66BF191C66CF1B9C668F1C1C60F
:1051180089F2C2C68AF295C644F1B8C661F193C64F
:1051280071F194C672F1BCC67DF2BDC680F2BEC6EE
:1051380081F2BFC67AF2A8C66EF2A9C665F2AAC6FF
:1051480066F2ABC667F2ACC669F2ADC66AF2AEC625
:105158006BF2AFC66CF2B0C66DF2B1C682F2B3C6DE
:1051680083F2B2C684F2B4C685F2B6C686F2B5C674
:1051780087F2B7C688F2D1C645F0D2C646F0D3C684
:1051880047F0000EF36F000EF26F000EF46F060E7C
:10519800F22501019D6F000E0601F32101019E6FAA
:1051A800900E9D25D96E060E9E21DA6E0601F451E9
:1051B8000A0D320EF324E16E020EF420E26EDFCF08
:1051C800E7FFF24BF32B000EF56F060EF2250101F7
:1051D8009D6F000E0601F32101019E6F900E9D2523
:1051E800D96E060E9E21DA6E0601F4510A0D2A0EBA
:1051F80001019F6F020EA06FF3509F27F450A02368
:105208000601F55101019F25E16E0601000E01011D
:10521800A021E26EDFCFE7FF0601F24BF32B060E6B
:10522800F22501019D6F000E0601F32101019E6F19
:10523800900E9D25D96E060E9E21DA6E0601F45158
:105248000A0D2A0E01019F6F020EA06F040E9F2700
:10525800000EA023F3509F27F450A0230601F55118
:1052680001019F25E16E0601000E0101A021E26EF9
:10527800DFCFE7FF0601F24BF32BF52B030EF565A5
:10528800A4D7F42B010EF46582D7BAC647F1BBC682
:1052980048F1CCC641F2CDC642F2CEC643F2C9C6E9
:1052A8003EF2CAC63FF2CBC640F2C7C649F2C8C6EC
:1052B8004AF2C3C646F2CFC648F2C4C64DF2C5C6C6
:1052C8004EF2C6C64FF2D0C64AF1D4C64BF0D5C688
:1052D80000F1D6C601F1D7C602F1D8C603F1D9C686
:1052E80004F1DAC605F1DBC606F1DCC620F1DDC63D
:1052F80007F1DEC608F1DFC619F1E5C613F1E6C607
:1053080014F1E7C60DF1E8C60EF1E9C60FF1E0C6E3
:1053180079F1E1C64FF1E2C650F1E3C6CBF3EAC634
:105328001CF1EDC611F1EEC612F1EBC6CCF3ECC6DA
:105338005FF2EFC622F1F0C654F1010E1200000E22
:1053480012006BC190F66CC191F668C1B9F689C2BA
:10535800C1F68AC2C2F644C195F661C1B8F671C1F8
:1053680093F672C194F67DC2BCF680C2BDF681C2C6
:10537800BEF67AC2BFF66EC2A8F665C2A9F666C2C4
:10538800AAF667C2ABF669C2ACF66AC2ADF66BC2E2
:10539800AEF66CC2AFF66DC2B0F682C2B1F683C289
:1053A800B3F684C2B2F685C2B4F686C2B6F687C230
:1053B800B5F688C2B7F645C0D1F646C0D2F647C0A2
:1053C800D3F6000E0601F36F000EF26F000EF16FB8
:1053D800F1510A0D320EF324D96E020EF420DA6E62
:1053E800060EF22501019F6F000E0601F32101014F
:1053F800A06F900E9F25E16E060EA021E26EDFCF12
:10540800E7FF0601F24BF32B000EF46FF1510A0D82
:105418002A0E01019F6F020EA06FF3509F27F450D0
:10542800A0230601F45101019F25D96E0601000E43
:105438000101A021DA6E060E0601F2250101A16F15
:10544800000E0601F3210101A26F900EA125E16E65
:10545800060EA221E26EDFCFE7FF0601F24BF32B27
:10546800F1510A0D2A0E01019F6F020EA06F040E62
:105478009F27000EA023F3509F27F450A023060176
:10548800F45101019F25D96E0601000E0101A021EA
:10549800DA6E060E0601F2250101A16F000E060163
:1054A800F3210101A26F900EA125E16E060EA22143
:1054B800E26EDFCFE7FF0601F24BF32BF42B030E6E
:1054C800F465A4D7F12B010EF16582D747C1BAF66E
:1054D80048C1BBF646C2C3F64DC2C4F64EC2C5F6B5
:1054E8004FC2C6F649C2C7F64AC2C8F63EC2C9F696
:1054F8003FC2CAF640C2CBF641C2CCF642C2CDF694
:1055080043C2CEF648C2CFF64AC1D0F64BC0D4F655
:1055180000C1D5F601C1D6F602C1D7F603C1D8F647
:1055280004C1D9F605C1DAF606C1DBF620C1DCF6FE
:1055380007C1DDF608C1DEF619C1DFF613C1E5F6CD
:1055480014C1E6F60DC1E7F60EC1E8F60FC1E9F69B
:1055580079C1E0F64FC1E1F650C1E2F6CBC3E3F6FC
:105568001CC1EAF611C1EDF612C1EEF6CCC3EBF69A
:105578005FC2ECF622C1EFF654C1F0F6000EF36FED
:10558800000EF26F000EF46FF2C69BF1F3C69CF1A9
:10559800900EF425D96EDA6A060EDA22DF50010180
:1055A8009D6FAFEC53F00601F24BF32BF42B600E1A
:1055B800F465EAD7000E01019C6FD30E9B6F1A0E9B
:1055C8009D6FAFEC53F01200000E266E000E256E94
:1055D800000E246E000E216E20681850D8A404D046
:1055E800290E1E6E8D0E03D0000E1E6E280E1F6E25
:1055F800040E1D6E61D01E501F240E6E0F6A0F36EA
:10560800000E116E020E106EEDEC4BF00E50266E71
:105618002650020DC10EF324F66E100EF420F76E1C
:10562800F86A000EF8220900F550165C0900F550DA
:105638001758D8B020D02650020DC10EF324F66EAC
:10564800100EF420F76EF86A000EF8220900F5CF64
:1056580019F00900F5CF1AF01650195E17501A5AAA
:105668001D50195C000E1A58D8B002D026501200EE
:1056780026281E6E21D02650020DC10EF324F66E88
:10568800100EF420F76EF86A000EF8220900F5CF24
:1056980019F00900F5CF1AF016C01BF017C01CF05E
:1056A80019501B5E1A501C5A1D501B5C000E1C58CA
:1056B800D8A0DCD726041F6E1E501F5CD8B09BD71D
:1056C8002650020DC10EF324F66E100EF420F76E6C
:1056D800F86A000EF82216500900F55C1750090008
:1056E800F558D8B050D02650020DC10EF324F66EEE
:1056F800100EF420F76EF86A000EF8220900F5CFB4
:1057080019F00900F5CF1AF01950165C226E1A50DC
:105718001758236EFE0E196EFF0E1A6E26501B6E5A
:105728001C6AD8901B361C3619501B261A501C228E
:10573800C10E1B24F66E100E1C20F76EF86A000EC0
:10574800F82216500900F55C246E17500900F55828
:10575800256E2250245C23502558D8B006D0FF0E61
:105768002624206E216AFF0E5ED02450225C25502C
:105778002358D8B004D026C020F0216A60D0185031
:10578800D8B4EDD7F8D72650020DC10EF324F66E23
:10579800100EF420F76EF86A000EF8220900F55092
:1057A800165C0900F5501758D8B049D02650020D9C
:1057B800C10EF324F66E100EF420F76EF86A000E90
:1057C800F82216500900F55C226E17500900F558AA
:1057D800236E2650196E1A6AD89019361A36020E98
:1057E8001926000E1A22C10E1924F66E100E1A2060
:1057F800F76EF86A000EF8220900F5CF1BF00900D1
:10580800F5CF1CF01B50165C246E1C501758256EE3
:105818002250245C23502558D8B007D0010E2624E6
:10582800206E216A000E21220AD02450225C2550C5
:105838002358D8A0A0D71850D8B49DD7EFD7205058
:105848001200000E296E000E306E000E2E6E000E35
:105858002F6E000E316E000E2A6E000E2B6E0201A6
:10586800DD935651D8B41200080E56611200000E8E
:10587800336E000E3324D96EDA6A050EDA22000E72
:10588800DF6E332A5F0E3364F4D78EEC55F0010EC9
:105898002C6E010E2D6E02015605D8A402D0400EC2
:1058A8000DD056C21AF0FE0E1A26010E1B6E1A2AC9
:1058B80002D0D8901B361A2EFCD71B50306E02012E
:1058C800325130143018D8A404D0020E2C6E010EB8
:1058D800296E3C5130143018D8A404D0020E2D6E15
:1058E800010E296E2904D8A4DAD0020E2C18D8A4E7
:1058F80006D0020E2D18D8A402D0020E05D0020E32
:105908002C18D8A404D0010E286E000E03D0020E65
:10591800286E010E326EBFD0000E336E32500A0D63
:105928002A0E1A6E020E1B6EF3501A26F4501B2212
:1059380033501A24D96E000E1B20DA6E0201DFAE36
:10594800A5D032500A0D2A0E1A6E020E1B6EF350A5
:105958001A26F4501B2233501A24D96E000E1B202D
:10596800DA6EDF507F0B640AD8B490D032500A0D3B
:105978002A0E1A6E020E1B6E040E1A26000E1B2229
:10598800F3501A26F4501B2233501A24D96E000EF5
:105998001B20DA6EDF507F0B640AD8B477D0325000
:1059A8000A0D2A0E1A6E020E1B6EF3501A26F450B8
:1059B8001B2233501A24D96E000E1B20DA6EDF50DA
:1059C8007F0B2E6E32500A0D2A0E1A6E020E1B6EB7
:1059D800040E1A26000E1B22F3501A26F4501B221E
:1059E80033501A24D96E000E1B20DA6EDF507F0B5D
:1059F8002F6E2F502E5CD8B004D02E04316E2F0499
:105A080007D02F502E18D8A406D0000E316E600E85
:105A18002A6E010E2B6E2B04D8B434D037D0600E0A
:105A280031602FD0000E3124D96EDA6A050EDA22E1
:105A3800DF50D8A414D03250D8A408D0000E312496
:105A4800D96EDA6A050EDA22410E07D0000E31242B
:105A5800D96EDA6A050EDA22810EDF6E12D0000ED8
:105A68003124D96EDA6A050EDA22410EDE18D8A47E
:105A780008D0000E3124D96EDA6A050EDA22000E3B
:105A8800DB8E312A2A50315CD8A0C9D7332A030EBD
:105A9800336444D7322A2850325CD8A03DD747EC2B
:105AA80055F0000E0301C66F000EC86F48EC43F0B6
:105AB80056C2C7F312006BC160F06CC161F068C1D7
:105AC80089F089C291F08AC292F044C165F061C13F
:105AD80088F071C163F072C164F07DC28CF080C23D
:105AE8008DF081C28EF07AC28FF06EC278F065C2F6
:105AF80079F066C27AF067C27BF069C27CF06AC24C
:105B08007DF06BC27EF06CC27FF06DC280F082C205
:105B180081F083C283F084C282F085C284F086C299
:105B280086F087C285F088C287F045C0A1F046C0DC
:105B3800A2F047C0A3F0000E0001C36F000EC26FB1
:105B4800000EC16FC1510A0D320EF324D96E020E38
:105B5800F420DA6E060EC225126E000EC321136EF3
:105B6800600E1224E16E000E1320E26EDFCFE7FF15
:105B7800C24BC32B000EC46FC1510A0D2A0E126E00
:105B8800020E136EF3501226F4501322C45112243D
:105B9800D96E000E1320DA6E060EC225146E000EA2
:105BA800C321156E600E1424E16E000E1520E26EFE
:105BB800DFCFE7FFC24BC32BC1510A0D2A0E126E6D
:105BC800020E136E040E1226000E1322F350122634
:105BD800F4501322C4511224D96E000E1320DA6E29
:105BE800060EC225146E000EC321156E600E142415
:105BF800E16E000E1520E26EDFCFE7FFC24BC32B2C
:105C0800C42B030EC465B8D7C12B010EC1659AD742
:105C180047C18AF048C18BF046C293F04DC294F058
:105C28004EC295F04FC296F049C297F04AC298F01A
:105C38003EC299F03FC29AF040C29BF041C29CF02C
:105C480042C29DF043C29EF048C29FF04AC1A0F0F4
:105C58004BC0A4F000C1A5F001C1A6F002C1A7F095
:105C680003C1A8F004C1A9F005C1AAF006C1ABF0B0
:105C780020C1ACF007C1ADF008C1AEF019C1AFF05A
:105C880013C1B5F014C1B6F00DC1B7F00EC1B8F02C
:105C98000FC1B9F079C1B0F04FC1B1F050C1B2F045
:105CA800CBC3B3F01CC1BAF011C1BDF012C1BEF034
:105CB800CCC3BBF05FC2BCF022C1BFF054C1C0F07E
:105CC800000EC36F000EC26F000EC46FC2C00EF08C
:105CD800C3C00FF0600EC425D96EDA6A000EDA224E
:105CE800DF50106EFFEC54F00001C24BC32BC42BE5
:105CF800600EC465EBD7000E0F6ED30E0E6E1A0E33
:105D0800106EFFEC54F01200020E2AEC35F0000180
:105D1800736FEE0E7319D8A41BD0EE0E01016D1926
:105D2800D8B459D00201CA2B050ECA6554D0000E4A
:105D3800CA6F5082EE0E01016D6F000E3E6E090EA5
:105D48003D6E010E3F6E800E406EABEC41F043D0CD
:105D5800000E0201CA6F00017351EB0F756FED0E53
:105D68000201CB25D96EDA6A020EDA2275C0DFFF8E
:105D7800CB2B030ECB19D8A42ED0000ECB6FED0E73
:105D88000E6E020E0F6E030E106E8AEC4AF0EEC213
:105D980076F050B250920001755101016D19D8B4D6
:105DA80014D06D0E000176650ED06E0E01016D6186
:105DB8000AD0000E3E6E070E3D6E010E3F6E800E3D
:105DC800406EABEC41F075C06DF1B40E01012C656D
:105DD80002D0000E2C6F030E2AEC35F00001746F10
:105DE800EE0E7419D8A41BD0EE0E01017019D8B4A8
:105DF80053D00201C82B050EC8654ED0000EC86FDF
:105E0800EE0E0101706F4F8C000E3E6E0A0E3D6E55
:105E1800010E3F6E800E406EABEC41F03DD0000E9F
:105E28000201C86F00017451EB0F756FEA0E020191
:105E3800C925D96EDA6A020EDA2275C0DFFFC92BCE
:105E4800030EC919D8A428D0000EC96FEA0E0E6E29
:105E5800020E0F6E030E106E8AEC4AF0EBC276F05B
:105E68004FBC4F9C0001765101017019D8B414D071
:105E78006D0E000176650ED06E0E010170610AD0BC
:105E8800000E3E6E080E3D6E010E3F6E800E406E97
:105E9800ABEC41F076C070F101016B51705DD8A098
:105EA8000BD00201C72B050EC719D8A417D0000EB6
:105EB800C76F01017C8B12D06C51705DD8B00BD0CC
:105EC8000201C72B050EC719D8A408D0000EC76F4A
:105ED80001017C9B03D0000E0201C76FEE0E010189
:105EE8007019D8B404D0EE0E6D19D8A405D0695134
:105EF800D8A408D0040E05D0040E6919D8A402D07D
:105F0800000E696F640E706103D0630E6D6509D071
:105F18006405D8A406D002018B51D8A402D0010E82
:105F28008B6FC8EC5BF0120001012E51D8A42E2B08
:105F38003651D8A4362B3951D8A4392B2951D8B485
:105F480010D00201B52B040EB5650ED0000EB56F4A
:105F580001012951D8A4292B2A51D8B405D02A2BBC
:105F680003D0000E0201B56F3AEC18F0BBEC5BF001
:105F78000201BA2B040EBA6530D0000EBA6F0101C7
:105F88002B51D8A42B2B3B51D8A43B2B3751D8A449
:105F980051AC01D0372B3851D8A4382B3C51D8A458
:105FA8003C2B3D51D8A43D2B3E51D8B40ED03E2BAE
:105FB8000A0E3E19D8A402D0899C07D0140E3E19A7
:105FC800D8A403D0898C000E3E6F24EC5BF001014D
:105FD8003A51D8A43A2B40EC3CF001012551D8B4F1
:105FE8000BD00201B72B310EB76509D0000EB76F81
:105FF8000101252B262B03D0000E0201B76F0201E9
:10600800B92B0C0EB96506D0000EB96F88EC2EF0CE
:106018005EEC3EF00201B82B310EB8654CD0000E94
:10602800B86FB62B3B0EB66516D0000EB66FD1EC26
:1060380055F0B0EC55F001013251D8B40CD0322BE8
:10604800030E326508D0000E326F000E02018D6F0C
:10605800000EACEC56F001012451D8A4242B285191
:10606800D8A4282B3051D8A4302B3351D8A4332BA3
:106078006405D8A402D00201D52B01015D05D8A47E
:1060880002D00201D32B0201FC2B020EFC19D8A46A
:1060980008D0B6EC54F0040E010153610CD0532B18
:1060A8000AD0030EFC6507D0000EFC6F0301C55132
:1060B800D8B4A2EC31F0E3EC3EF001013551D8B48C
:1060C8001200352B110E3519D8A428D0020E030161
:1060D800C519D8A423D0000E0001826F020E030157
:1060E800C56F020ECA6F870E0001826F010E1D6E0A
:1060F800D10E1C6E820E1E6E000E1F6E030E206ED9
:10610800020E216E010E226E020E236E5DEC39F036
:10611800CAC33DF001013F51B7EC51F0230E010114
:1061280035651200020E0301C519D8A41200000E2D
:106138000101356F000E0301C56FFF001200000159
:10614800606F000E00016A6F000E6C6F140E6C25F4
:10615800D96EDA6A040EDA22DE04D8A405D0010E5C
:106168006A6F6CC06BF004D06C2B110E6C65EED7A7
:106178006005D8A4B5D06A05D8A48BD0000E6C6F82
:106188006B51080D050EF324D96E060EF420DA6E55
:1061980002015451DE18D8B429D000016B51080D02
:1061A800040EF324D96E060EF420DA6E55C2DFFF12
:1061B8006B51080D050EF324D96E060EF420DA6E25
:1061C80054C2DFFF6B51080D060EF324D96E060E7C
:1061D800F420DA6E50C2DFFF6B51080D070EF3246E
:1061E800D96E060EF420DA6E51C2DFFF00016B5142
:1061F800080D000E3D6E060E3E6EF3503D26F4501F
:106208003E226C513D24D96E000E3E20DA6E610E9E
:106218006C25E16EE26A000EE222DFCFE7FF6B51E8
:10622800080D000E3D6E060E3E6EF3503D26F450EE
:106238003E226C513D24D96E000E3E20DA6E690E66
:106248006C25E16EE26A040EE222DFCFE7FF6C2BD9
:10625800070E6C6595D7140E6B25D96EDA6A040E95
:10626800DA22000EDF6E6B2B000E6A6F6BC06CF0CB
:10627800110E6C6501D01FD0140E6C25D96EDA6A28
:10628800040EDA22DE04D8A402D0010E13D06C2B3F
:10629800EFD7FE0E616F000E626F800E636F800E87
:1062A800646F55C265F054C266F050C267F051C2BF
:1062B80068F0000E6A6F000E6C6F610E6C25D96E67
:1062C800DA6A000EDA22690E6C25E16EE26A040EC3
:1062D800E222DFCFE7FF6C2B070E6C65EED714D0F8
:1062E800000E6C6F690E6C25D96EDA6A040EDA221C
:1062F800610E6C25E16EE26A000EE222DFCFE7FF55
:106308006C2B070E6C65EED76A51D8A402D0010E2B
:1063180001D0020E696F800E1D6E010E1C6E610E9B
:106328001E6E000E1F6E8EC420F0070E216E090E21
:10633800226E000E236E5DEC39F012008EC26DF0F5
:106348008FC26EF090C26FF091C270F0000E000123
:10635800736F000E716F0A0E0201446106D00101CD
:1063680085A985890201DC8305D0010185B9859954
:106378000201DC93150E7B6106D0010185AB858B8C
:106388000201DC8505D0010185BB859B0201DC95F6
:10639800640E0101706503D0640E6E6F21D06B51DD
:1063A800FD0F0001726F01016B51040F0001736F43
:1063B80001016405D8B40FD00301C805D8B40BD0C7
:1063C800000172510101705DD8A005D07051000123
:1063D800735DD8B003D070C16EF102D06BC16EF19D
:1063E8004F505010D8A403D06EC167F12CD050A4E0
:1063F80002D0E00E23D050A602D0E10E1FD050B23A
:1064080002D04FAC02D0E60E19D04FA402D0E30E52
:1064180015D04FA202D0E20E11D04FBA02D04FA829
:1064280002D0E50E0BD04FAE02D0E70E07D050A831
:1064380002D0E80E03D04FA603D0E40E0101676F27
:10644800010E0001716F67C16DF0030E01017361E8
:1064580003D0030E746F21D07151FD0F0001726FCC
:1064680001017151030F0001736F01015D05D8B47B
:106478000FD00301C805D8B40BD000017251010137
:10648800735DD8A005D073510001735DD8B003D0F7
:1064980073C174F102D071C174F14D504E10D8A47B
:1064A80003D074C160F122D04EA202D0F60E19D0EA
:1064B8004DA802D0F30E15D04DA602D0F20E11D081
:1064C8004DA202D0F00E0DD04DA402D0F10E09D08D
:1064D8004DAA02D0F40E05D04DBE02D04EA003D076
:1064E800F50E0101606F010E0001716F60C16EF061
:1064F80000017105D8A403D00201DD8B02D002018E
:10650800DD9B85C16FF0F1C070F0010E1D6ED70ED6
:106518001C6E6D0E1E6E000E1F6E030E206E020E98
:10652800216E040E226E020E236E5DEC39F0010E10
:106538003D6E100E22EC47F01200196E000E216E0F
:10654800000E1F6E000E1C6E000E206E000E1D6EDB
:10655800000E186E000E176E000E1B6E000E1A6EDF
:1065680019500201535DD8A0C5D01950535D1E6E55
:10657800545142EC5BF01F6E145042EC5BF0206EFD
:106588001E50D8A404D020501F5CD8A0B3D002015C
:10659800555142EC5BF01C6E155042EC5BF01D6EE1
:1065A80020501F5CD8A050D01E50D8B40DD01EC0AB
:1065B8000EF00F6A010E116E6D0E106E88EC5AF017
:1065C8000EC017F00FC018F01F50205CD8B02DD0A7
:1065D800460E2024F66EF76A120EF722F86A000EAD
:1065E800F8220800F5CF16F01D50165C1A6E1B6ACB
:1065F800D8A01B062028216E0FD0460E2124F66E47
:10660800F76A120EF722F86A000EF8220800F55011
:106618001A26000E1B22212A1F50215CD8A0EDD774
:106628001C501A26000E1B2261D01F502018D8A417
:106638005DD01D501C5CD8A059D01D501C5C1A6E32
:106648001B6AD8A01B0652D0010E1E6410D0FF0E84
:106658001E240E6E0F6AFF0E0F22010E116E6D0EB4
:10666800106E88EC5AF00EC017F00FC018F0460EE6
:106678002024F66EF76A120EF722F86A000EF82246
:106688000800F5CF16F01D50165C1A6E1B6AD8A0CC
:106698001B062028216E0C0E216401D010D0460E56
:1066A8002124F66EF76A120EF722F86A000EF82215
:1066B8000800F5501A26000E1B22212AECD7010EDD
:1066C800216E0FD0460E2124F66EF76A120EF722BD
:1066D800F86A000EF8220800F5501A26000E1B2250
:1066E800212A1F50215CD8B09BD7ECD71A50172607
:1066F8001B50182217C014F018C015F012004A5089
:10670800D8B41DD03FC140F1280E4A18D8A404D0EF
:10671800020E0101416F13D0020E4A18D8A403D00B
:10672800030E010109D04A04D8A407D0020E0101C2
:106738004F19D8A402D0010E416F000E4A6E010114
:106748004151D8B4120052C151F1020E5119D8A4C6
:1067580072D00001F2BD4FBE6ED050B86CD0030E9F
:1067680001014119D8B403D04105D8A45FD0050E62
:106778004019D8A406D05905D8A403D099EC50F0F4
:1067880012007EEC42F0000E0101216F09C122F1D6
:106798002051D8A411D0280E3F6F020E0E6E080E9D
:1067A800EDEC35F0000E01011D6F010E3D6F010E7D
:1067B800386F010E376F1200020E4019D8A404D0AA
:1067C800010E466F010E0ED04005D8A404D0000E6D
:1067D800466F030E07D0040E4019D8A405D0020E48
:1067E800466F020E4E6F0BD0050E4019D8A407D085
:1067F800030E466F040E4E6F8A88020E556F010E07
:106808000E6E4651EDEC35F02A0E01013F6F010E78
:106818002B6F020E0E6E080EEDEC35F0010E010125
:10682800376F010E256F000E266F1200000E4A6E9C
:10683800000E416F1200050E01014019D8A403D0C3
:106848005905D8B49BD7020E4019D8B497D740053C
:10685800D8A404D0000E466F030E07D0040E4019CA
:10686800D8A405D0020E466F020E4E6F0BD0050E4F
:106878004019D8A407D0030E466F040E4E6F8A88BD
:10688800020E556F010E0E6E4651EDEC35F02A0ED4
:1068980001013F6F010E2B6F010E256F000E266F51
:1068A800000E376F1200000E0001766F000E776F32
:1068B80024EE71F010EE78F0060EDBCFE3FFE80669
:1068C800FCE2680E76EC46F00009D8A41200770EB8
:1068D800196E000E1A6E000E1C6E010E1B6E680EED
:1068E80091EC54F0780E136E000E146E000E166EB6
:1068F800070E156E680EADEC58F000017D51D8A456
:1069080006D07C51D8A403D07B51D8B412007A9F0A
:10691800795142EC5BF00001756F7A5142EC5BF003
:106928000001766F180E76611200080E7D61120064
:106938007D51D8B412003C0E7561120078C052F235
:1069480079C051F27AC050F27BC055F27CC054F243
:106958007DC056F27EC053F2020156510301C71999
:10696800D8A425EC2CF0020151516119D8B408D0F3
:1069780047EC55F051C261F25AEC40F048EC43F054
:10698800F00E02014719D8A41CD049514A11D8B4B5
:1069980021D06E0E495D010E4A59D8A00DD0010EC6
:1069A8004A6F6D0E496F49C26EF3010E03016F6F96
:1069B8004AC270F3010E716FFFEC59F055C247F2ED
:1069C80009D055514719D8B405D055C247F24B07DD
:1069D800D8A04C07F00E02016019D8A41CD0F00E04
:1069E8004518D8B403D0E7EC56F002D046EC58F07E
:1069F800F00E01010D19D8B403D0CBEC50F004D03F
:106A08000001F2BD6BEC55F00001F2BD51EC5BF0FA
:106A180055C260F2120055516019D8B4120055C21F
:106A280060F2F00E4518D8B403D04306D8A0440647
:106A3800F00E01010D19D8B41200090751EC5BF0F2
:106A480022C1BEF3010E0301BF6F1200286E000EB3
:106A5800156E2850D8EC3DF015C02DF016C02EF05C
:106A68002804D8A48FD0290E2D5C0A0E2E58D8B031
:106A780006D0580E2D5C020E2E58D8B002D0EE0E5D
:106A8800A5D0E30E2D5C090E2E58D8A002D0FB0E1F
:106A98009DD0E50E2D5C080E2E58D8A002D0000E11
:106AA80095D0CF0E2D5C020E2E58D8B002D0280EED
:106AB8008DD02DC016F02EC017F0010E186EE8EC20
:106AC8002AF02C6E2C28D8B405D02C500A0DF3CF00
:106AD80068F27DD0010173510A0DF3CF29F073518B
